:020000040800F2
:100000004806002001010008D542000839350008E3
:10001000D1420008FD070008194400080000000054
:10002000000000000000000000000000DD420008A9
:10003000490A000800000000D9420008E142000817
:100040001B0100081B0100081B0100081B01000820
:100050001B0100081B0100081B0100081B01000810
:100060001B0100081B0100081B0100080108000813
:100070001B0100081B0100081B0100081B010008F0
:100080000D080008190800081B0100081B010008E2
:100090001B0100081B0100081B0100081B010008D0
:1000A0001B0100081B0100081B0100081B010008C0
:1000B0001B0100081B0100081B010008493500084E
:1000C0003D3500081B0100081B0100081B0100084A
:1000D0001B010008F5430008014400080D44000816
:1000E0001B0100081B0100081B010008DFF80CD0F1
:1000F00000F06CFB004800473D4400084806002023
:100100000648804706480047FEE7FEE7FEE7FEE7B1
:10011000FEE7FEE7FEE7FEE7FEE7FEE7E542000852
:10012000ED00000830B480EA010202F0004530F032
:10013000004221F0004013D090B1C30DD40DC2F3A2
:100140001601C0F31600E41A41F4000140F4000265
:100150007D34914201D3641C00E04900002C02DA96
:1001600030BC002070474FF400000023914201D3BF
:10017000891A034340084FEA4101F7D151B1914236
:1001800002D14FF0004105E002D24FF0010101E041
:100190006FF0010103EBC450284430BC00F0DFB91C
:1001A0002DE9FE4F804681EA0300C00F0C46009007
:1001B00021F0004123F00045B8EB0200A94105D22F
:1001C0004046214690461C460B46024623F000401E
:1001D000104347D0270DC7F30A00C3F30A5102901A
:1001E000401A019040286BDAC3F3130040F4801BDF
:1001F0000098924620B10023D2EB030A63EB0B0B6D
:1002000001985946C0F14002504600F077F9064681
:100210000D4650465946019A00F08FF910EB080040
:100220006141002487EA115284EAE7731A4340D0FF
:10023000009A62B3019A012A4FEA075215DC001BAB
:1002400061EB02014FF0004202EA0752CDE90042A1
:10025000001C41F5801132462B4600F0C6F903B070
:10026000BDE8F08F40462146F9E7001B61EB020133
:10027000001C41F5801300185B412018A2F50017FF
:1002800047EB030140EAD570B6196D4111E06D08E6
:100290004FEA360645EAC0754FEA0752001B61EB8C
:1002A0000201001C41F5801149084FEA3000001995
:1002B000514132462B4603B0BDE8F04F00F086B9FD
:1002C0000098012240000023D0EB020263EBE073B0
:1002D000009821464FEAE074B8EB000061EB04019E
:1002E000E9E783F000435BE781F0004158E72DE93F
:1002F000F04D81EA030404F0004B21F00045144660
:100300004FF0000A23F0004150EA050220D054EAE1
:1003100001021DD0C5F30A570246C5F31303C1F30A
:100320001300C1F30A5640F4801543F48013A7EB81
:100330000608101BD64608F2FD3873EB050002D301
:1003400008F1010801E092185B41B8F1000F03DAEF
:1003500000200146BDE8F08D00204FF480110646D4
:1003600084460EE0171B73EB050705D3121B63EBE6
:10037000050306434CEA010C49084FEA3000921885
:100380005B4150EA0107EDD152EA030012D082EA44
:10039000040083EA0501084305D0101BAB4106D2D7
:1003A0000122002306E000224FF0004302E06FF03C
:1003B000010253101AEB06004CEB085110EB0A0037
:1003C00041EB0B01BDE8F04D00F000B9C10F80EA30
:1003D000E0700844CA079623002100F0C9B89623AC
:1003E0000022114600F0C4B80EB5C10F80EAE070DB
:1003F0000844CA07002140F233438DE80E000A4644
:100400000B4600F0F2F803B000BD70B5C1F30A521C
:1004100001F000450024C1F3130140F2FF3341F421
:1004200080119A4201DA002070BD40F233439A42B3
:10043000A2F2334203DC524200F06FF800E0904039
:100440002C43F1D0404270BD00F0004230F000403B
:100450000AD0C10D01F56071C0F3160042EA0151E6
:10046000C20840071143704700200146704730B56D
:100470000B46014600202022012409E021FA02F562
:100480009D4205D303FA02F5491B04FA02F52844FC
:10049000151EA2F10102F1DC30BD2DE9F05F054629
:1004A000002092469B4688460646814640241BE033
:1004B000284641464746224600F02FF853465A4602
:1004C000C01A914110D311461846224600F016F882
:1004D0002D1A67EB01084F4622460120002100F04B
:1004E0000DF817EB00094E41201EA4F10104DFDCDA
:1004F000484631462A464346BDE8F09F202A04DBA1
:10050000203A00FA02F1002070479140C2F1200326
:1005100020FA03F3194390407047202A04DB203A65
:1005200021FA02F00021704721FA02F3D040C2F113
:1005300020029140084319467047202A06DBCB175A
:10054000203A41FA02F043EAE07306E041FA02F38E
:10055000D040C2F12002914008431946704700295B
:10056000A8BF7047401C490008BF20F00100704739
:1005700010B4B0FA80FC00FA0CF050EA010404BF99
:1005800010BC704749B1CCF1200421FA04F411FAEF
:100590000CF118BF012121430843A3EB0C01CB1D33
:1005A0004FEA00614FEA102042BF002010BC7047A4
:1005B00000EBC35010440029A4BF10BC7047401C7E
:1005C000490008BF20F0010010BC704710B5141E90
:1005D00073F1000408DA401C41F1000192185B41FC
:1005E0001A4301D120F0010010BD2DE9F04D9246D3
:1005F0009B4611B1B1FA81F202E0B0FA80F22032EA
:100600009046FFF77BFF04460F4640EA0A0041EAA6
:100610000B0153465A46084313D0114653EA0100D2
:1006200019D0C8F140025046FFF777FF05460E4645
:10063000504659464246FFF761FF084305D0012066
:1006400004E020463946BDE8F08D0020054346EA27
:10065000E0762C4337430A986305E40AA0EB0800D0
:100660000022FD0A44EA47540A3002D50020014620
:10067000E9E7010510196941DDE9084500196941FB
:10068000BDE8F04DA2E72DE9FE4F81EA030404F036
:10069000004421F0004100944FF0000B23F0004390
:1006A00050EA01045ED052EA03045BD0C3F30A545B
:1006B000C1F30A552C44A4F2F3340194A0FB025474
:1006C000C1F3130141F48011C3F3130343F4801306
:1006D00001FB024400FB034E840A970A44EA81545A
:1006E00047EA8357A4FB076802958D0A05FB078537
:1006F0004FEA932C04FB0C542705029D4FEA065841
:1007000047EA1637B5EB08056EEB070C870E920E1D
:1007100047EA811742EA8312A7FB0201B6EB0B01FD
:1007200064EB00042B0D43EA0C335E1844EB1C50C1
:10073000DA465146E7FB0201C5F313044FEA0B33D7
:1007400043EA14534FEA0432019C43EA0603A4F13E
:100750000C040294009CCDE900B4FFF746FF03B0FF
:10076000BDE8F08F00200146F9E7C1F30A52C1F35A
:10077000130140F2FF3341F480119A4202DA002063
:100780000146704740F233439A42A2F2334202DC00
:100790005242FFF7C2BEFFF7B1BE000030B5041EE3
:1007A00071F1000404DB4FF00044404264EB0101AE
:1007B000141E73F1000405DB1C464FF00043524247
:1007C00063EB0403994208BF904230BD1CB5094851
:1007D0000090094801900546009C06E0E06840F062
:1007E000010394E8070098471034AC42F6D3FFF7B2
:1007F00081FC00004850000868500008FEE7000037
:1008000040F24800C2F2000000F066BB40F2D000A7
:10081000C2F2000000F060BB40F28C00C2F20000A7
:1008200000F05ABB80B582B04AF23020ADF8060025
:1008300040F214104FF47A7CC2F200000DF106026F
:1008400088210223CDF800C001F008FC0A2000F046
:1008500055FC40F21000C2F200000021C0F8021066
:10086000017002B080BD0000B0B584B040F6D20087
:10087000ADF8080000208DF80600ADF8040040F245
:1008800014104FF47A74C2F2000002AA88210223E5
:10089000009401F0E3FBE0BB0A2000F02FFC40F2E3
:1008A0001410C2F2000001AA88210323009401F071
:1008B000D3F970BBBDF8040040F2100400BA000C7C
:1008C000C2F20004608040F6D220ADF80E00002095
:1008D0008DF80C00ADF80A0040F214104FF47A7550
:1008E000C2F200000DF10E0288210223009501F0F2
:1008F000B5FB70B90A2000F001FC40F21410C2F2FE
:1009000000000DF10A0288210323009501F0A4F9EB
:1009100010B1012004B0B0BDBDF80A0000BA000C4F
:10092000A08001202070002004B0B0BDB0B582B01E
:10093000054600208DF80600ADF8040040F21410C2
:100940004FF47A74C2F2000001AA882103230094B4
:1009500001F082F910B1012002B0B0BD40F21000E8
:10096000BDF80410C2F20000027809BA012A4FEA69
:1009700011410AD182884088891A4FF4167359436D
:10098000801A91FBF0F000F5967188B2B0F57A7F8D
:1009900028BF4FF47A702880002002B0B0BD00005C
:1009A000B0B582B0044600208DF80600ADF8040012
:1009B00040F214104FF47A75C2F2000001AA8821A7
:1009C0000323009501F048F920B10125284602B023
:1009D000B0BD00BFBDF80400C0BAFFF705FD49F681
:1009E0009A1249F69913C9F69912C4F23903FFF71E
:1009F0007EFC0023C4F2790300220025FFF7D0FB20
:100A0000FFF703FD2080284602B0B0BD80B582B05C
:100A100041F22C00ADF8060040F214104FF47A7C3D
:100A2000C2F200000DF1060288210223CDF800C0B9
:100A300001F014FB10B1012002B080BD642000F071
:100A40005DFB002002B080BD70470000EFF3108016
:100A500072B600BFFEE7000010B581B00022009220
:100A600090F82420012A03D10221084601B010BDCC
:100A70004B680122062B80F8242033D8D0F800C020
:100A800003EB83035A1F1F23DCF834E003FA02F45C
:100A90000B682EEA040403FA02F22243CCF8342055
:100AA000092B03EB430249D9DCF80CE01E3A07247A
:100AB000896894402EEA0404914023F00102214306
:100AC000102ACCF80C1043D142F20841C4F20101C3
:100AD000A1F10802944543D0816A41F0200181626E
:100AE000012136E0D0F800C00C2B03EB830213D8B1
:100AF000233A1F23DCF830E003FA02F40B682EEAF5
:100B0000040403FA02F22243CCF83020092B03EB51
:100B10004302C9D812E000BF413A1F23DCF82CE0A1
:100B200003FA02F40B682EEA040403FA02F22243E9
:100B3000CCF82C20092B03EB4302B5D8DCF810309D
:100B4000072489689440A34391401943CCF81010BE
:100B50000021002280F82420084601B010BD00BF0B
:100B60000A681202F4D40A68102B42F400020A60E8
:100B7000EED140F20C01C2F2000109684DF6836229
:100B8000C4F21B32A1FB0212910C01EB810149005E
:100B9000009100990029DBD000990139009100995A
:100BA0000029D5D000990139009100990029CFD0B2
:100BB00000990139009100990029C9D000990139A3
:100BC0000091009900294FF00001E5D1C1E7000034
:100BD000002804BF01207047B0B50446806A28B1E0
:100BE00021688868C0070CD115E000BF0020E062D2
:100BF00084F82400204600F097F821688868C00730
:100C000009D0886820F00100886000F093FB21681B
:100C10008A68D20726D1A06AC0063AD4A06A41F2F7
:100C2000021290430230A062E069D4E9013240EA46
:100C3000030C531EB3FA83F35D091346B2F5807FAC
:100C400018BF2B02207D257B01284CEA45002CD1C2
:100C500035B3A56A45F02005A562E56A45F00105B2
:100C6000E56222E0054602E08868C007D3D000F0C4
:100C700061FB401B21680328F6D38868C007F3D0C6
:100C8000A06A40F01000A062E06A40F00100E0625B
:100C9000A06AA06A40F01000A0620120B0BD00BFB1
:100CA000A56903EB4533A3F5C0534D68B2F5807FCA
:100CB00025F4694543EA05034B608B684FF2FD75E7
:100CC000CFF6E17503EA050343EA00038B6001D028
:100CD000012A07D122690023CFF6F07303EB0252F9
:100CE00001E000BF0022CB6A23F470031A43CA62FA
:100CF000896840F6FE62CFF61F721140814207D12B
:100D00000020E062A16A012262F30101A162B0BD8C
:100D1000A06A40F0100020F00200A062E06A40F0FB
:100D20000100E0620120B0BD70B586B0044640F617
:100D30000000C4F20100216800F5E0520026914253
:100D40000596CDE90366029602D006B070BD00BFDD
:100D500041F21801C4F202010A6842F400720A600A
:100D60000A6802F400720192019A0A6842F00402D1
:100D70000A60096801F004010191019901210291C1
:100D80000321039102A900F0CDF940F248050820A3
:100D9000C2F20005C4F202004FF40072C5E9000679
:100DA00005F1100080214FF400634FF0200C80E823
:100DB0000C102846C5E90261EE6100F05DF90028DB
:100DC00018BFFFF743FE25626C6206B070BD0000DD
:100DD000014690F82100022816D10868D1E90FC316
:100DE000026822F00E020260026822F00102026034
:100DF000012000FA03F2CCF8042081F82100002041
:100E0000002281F8202070470420886301200022FE
:100E100081F820207047000090F82110022923D18A
:100E2000026840F2040C1168C4F2020C21F00E01B9
:100E3000116013682F21C4F202018A4223F00103DA
:100E4000136015DD3023C4F202039A421CD0442300
:100E5000C4F202039A421BD05823C4F202039A42FE
:100E60001CD14FF4803321E00421816301207047BD
:100E70000823C4F202039A420ED01C23C4F20203D8
:100E80009A420BD1102311E04FF480730EE000BFA3
:100E90004FF480530AE000BF012307E00CF1680122
:100EA0004FF080738A4208BF4FF480130121CCF8C1
:100EB000003080F82110416B0022002980F82020AA
:100EC00004BF0020704780B58847002080BD000027
:100ED00090F821007047000010B5D0E90FCE0168EE
:100EE000DCF800300A6823FA0EF35C072AD512F00A
:100EF000040427D00A68920603D40A6822F0040288
:100F00000A602F22C4F20202914240F20402C4F2AB
:100F100002025BDD3023C4F20203994272D0442303
:100F2000C4F20203994273D05823C4F202039942D7
:100F300040F07A804FF480231360C16A002940F0AA
:100F400098806FE09C0727D512F0020424D00A682D
:100F5000920606D40A6822F00A020A60012280F88A
:100F600021202F22C4F20202914240F20402C4F274
:100F700002023BDD3023C4F20203994260D04423D5
:100F8000C4F2020399425FD05823C4F2020399428B
:100F900060D14FF4003365E01B0743D512F008021F
:100FA00008BF10BD0A6822F00E020A60012101FA92
:100FB0000EF2CCF80420816380F82110016B00222E
:100FC000002980F8202054D12CE000BF0823C4F26F
:100FD0000203994222D01C23C4F20203994223D176
:100FE00040231360C16A002943D11BE00823C4F2E7
:100FF000020399422CD01C23C4F20203994229D146
:1010000020232FE04FF480631360C16A89BB09E09D
:101010004FF480431360C16A59BB03E0042313609B
:10102000C16A31BB10BD00BF02F168044FF080639C
:10103000A14208BF4FF480031360C16AC9B9F1E748
:101040004FF400730EE000BF4FF400530AE000BFFE
:10105000022307E002F168044FF00073A14208BFC9
:101060004FF400131360816A0022002980F82020C9
:10107000D8D0BDE810400847014600284FF00100D5
:1010800008BF70472DE9F043D1F800C04FF6F87360
:10109000CBF6FD734CF6CD426344CCF6CC42A3FBB9
:1010A00002236FF0030202EA93020023C4F2020358
:1010B00001F10C08C1E90F320222D1E9019E98E842
:1010C000F00181F82120DCF8002043F6F0739A4308
:1010D00042EA090242EA0E0222432A4332433A43D9
:1010E00042EA0802CCF8002000228A6381F821003D
:1010F00081F820200020BDE8F0437047B0B50446D9
:1011000000F018F9054640F20400C2F20000007831
:10111000611C18BF044400BF00F00CF9401BA04242
:10112000FAD3B0BD2DE9F04F82B00E68002E00F06A
:10113000FD8041F20042C4F20102042340F2004E5D
:10114000904208BF03234FF6FF7CC4F2010E0093C8
:1011500000240123C1F2100C4FF0000A4FF00009E7
:101160004BE000BF41F20002C4F20102009F904236
:1011700008BF022704F00C030F229A402BEA020258
:1011800007FA03F34FEA9A051A4346F825204E68FA
:1011900040F20C45F202DEF8082054BF22EA0802B1
:1011A00042EA0802C4F20105CEF808202A68B30218
:1011B00054BF22EA080242EA08022A60B303DEF8BA
:1011C000042054BF22EA080242EA0802F303CEF8E0
:1011D0000420DEF800204FF0010354BF22EA080289
:1011E00042EA0802CEF800200E680AF1010A36FA37
:1011F0000AF204F1040400F0998003FA0AFB16EAEB
:101200000B08F1D04E68664512DC122E56D8DFE886
:1012100006F0350B4D4955555555555555555555B0
:1012200055555545510000BFD1F80C9046E000BF20
:101230004FF6FF72C1F2210296420FDC0022C1F28A
:10124000110296421AD00022C1F21202964215D023
:101250000022C1F22102964210D02FE00022C1F2FA
:10126000220296420AD00022C1F23102964205D0F3
:101270000022C1F23202964220D100BF8A684AB1F0
:10128000012A14BFC0F814B0C0F810B04FF008091C
:1012900014E000BF4FF0040910E000BFCA6802F17B
:1012A00004090BE04FF0000908E000BFCA6802F132
:1012B000080903E0CA6802F10C0900BF024626468D
:1012C000B8F5807F24BF0432203E17680F25B54053
:1012D00027EA050509FA06F635431560CA79D206EC
:1012E0007FF582AF41F21803C4F202031A68AEF52B
:1012F0007E7642F001021A601A6802F00102019241
:10130000019A2AF0030256F802B040F60002C4F235
:101310000102904208D040F60042C4F2010290421D
:101320007FF420AF012725E7002723E702B0BDE8BF
:10133000F08F000040F24020C2F2000000687047C9
:101340007047000070470000F0B581B004460068A7
:1013500000254769426894F83E1002F48076FA0549
:1013600008D53EB16FF4807242610268012542F4F3
:1013700000420260BA0505D5002E1EBF02356FF48B
:10138000007242617A0516D5AEB1628D94F83D3097
:10139000D4F830C0202908BF002A23D06FF480621F
:1013A000402905F10405426101D0102903D10168EB
:1013B00041F400710160380506D52EB1206808356A
:1013C0006FF40061416100E055B1206C40EA050115
:1013D0002046216401B0BDE8F04002F04DB900BFE5
:1013E00001B0F0BD03F0F701212909D0282B08BF77
:1013F000BCF1210F04D06FF4806141610435DAE75C
:1014000094F83D10E26AB2F1080318BF0123203AB4
:1014100018BF0122134208BF282921D0212939D120
:101420000021CFF6FF71E16221212163202184F8A0
:101430003D10002184F83E10426822F4E0624260D0
:101440006FF480624261026822F480620260426945
:10145000120648BF0161204600F072FFABE700BFF3
:101460000021CFF6FF71E162416821F4E061416043
:101470006FF480614161016821F4806101600020A6
:101480002021206384F83D1084F83E00204600F0BF
:10149000DDFB90E76FF4806141618CE7F0B581B0CE
:1014A00007687968C26A90F83E5090F83DE0402D98
:1014B00001D0102D34D1BB697C69E60718D1B2F197
:1014C0002A4F00F06782B2F52A0F00F063822207EC
:1014D00001F4007240F10681002A00F00381416BA3
:1014E000426C0029D2B23A6140F0B080B0E000BF57
:1014F0008A0543D44FF0010C7A685B076ED412055D
:1015000000F1488204F04402402A40F0598111F46D
:10151000806100F0558101B0BDE8F04002F0EEB905
:10152000026C01F40073002A0CBFBC6900247D69C1
:10153000AA0729D543B3016C002918BFBC6990F8EC
:101540003D1001F02801282940F0C080796801226F
:1015500021F48061796004F0040182EA910122069D
:101560004FF0180258BF0C22825A002380F83C30FA
:1015700001B0BDE8F040FFF7E5BE00BFC16AB1F5BC
:101580002A0F3DD1012140E0EA066FD5002B6DD036
:1015900090F83D50796821F4E06179600021009174
:1015A00079690091396841F0010139600099396821
:1015B00021F4806139607968090540F1798105F08D
:1015C000F7010446222940F0498154F8381F0A687F
:1015D000526824F80E2C34F80E2C47E1120500F165
:1015E000D98104F08402802A40F0F88011F48061EF
:1015F00000F0F48001B0BDE8F04002F065BA00BF31
:10160000C16AB1F12A4F01D10821C16290F83E10A0
:1016100040290BD1016D406C002900F0FE0018BF7D
:1016200040F00100386101B0F0BD00BF0169B1F5C3
:10163000804F40F0898090F83D10426C212902F0E3
:10164000FE0218BF01323A61416B09B1896A39B9AA
:10165000806B002800F09E81806A002800F09A814B
:10166000786840F40060786001B0F0BD0EF0F702D9
:10167000212A79D105F08402802A40F0C18011F43A
:10168000806100F0BD8090F83D10428D002A00F08E
:101690008181426A12F8013B3B614262428D013A0C
:1016A0004285428D002A08BF292940F0738179685C
:1016B00021F48061796021210163282180F83D10A7
:1016C00001B0BDE8F04000F03BBE00BF002100913A
:1016D0007A690092BA690092009A80F83C1001B0D1
:1016E000F0BD00BF4FF0010CA6078CEA522C7FF52D
:1016F00003AF002A3FF400AF90F83E20C16A036BAD
:1017000090F83D60222E40F09F80066D002E08BFAD
:10171000402A00F09980026D002A40F03D81026964
:10172000B2F5404F40F03881002100917969009175
:10173000B96900910099396841F480713960016D8F
:101740000131016501B0F0BD016D002900F000819B
:10175000016D012940F01E81406C062101EAD01084
:10176000F130386101B0F0BD05F04402402A57D194
:1017700011F4806154D090F83D10428D002A00F0A1
:1017800009813A69436A1A70426A01324262428DA3
:10179000013A4285428D002A08BF2A2940F0FA808A
:1017A00001684A6822F480624A602221016328218C
:1017B00080F83D1001B0BDE8F04000F0BFBD00BFB3
:1017C00004F00401012282EA910151EA0C0140F087
:1017D000E18001B0BDE8F04002F014B804F004016B
:1017E000012282EA910151EA0C0140F0D380BEF15E
:1017F000210F40F0C78001B0BDE8F04002F022B9EF
:10180000690740F1C780002B00F0C480418D00299A
:1018100000F0C080416A11F8012B3A610FE000BF6F
:10182000690740F1B780002B00F0B480418D00299A
:1018300000F0B0803969426A1170416A0131416239
:10184000418D01394185A5E0002000907869009024
:10185000B8690090009801B0F0BD00BF54F8341F83
:101860000A68526824F80A2C34F80A2C1AB1026C5F
:1018700042F0040202647A68064622F400620846D6
:101880007A60FFF725FB01463046012910D0206819
:1018900043F25551C0F600014163FFF7BDFA01461E
:1018A000304629B1216804464A6B084690472046D5
:1018B000418D61B101684A6952072FD44A695206C5
:1018C00039D4418D19B1016C41F004010164016CFE
:1018D00021B101B0BDE8F04001F0CEBE2A2D08D103
:1018E00000210163282180F83D10044600F026FD08
:1018F000204690F83D10282932D10021CFF6FF7103
:10190000C16200212022016380F83D2080F83E1052
:1019100001B0BDE8F04000F099B900BF0969426A22
:101920001170426A016801324262428D013A428579
:101930004A695206C5D50969426A1170416A013186
:101940004162418D01394185418D0029BBD1BEE7FE
:10195000406C062101EAD010F030386101B0F0BDD2
:10196000016B222918BF222D14D1002120220163EE
:1019700080F83D2080F83E1001B0BDE8F04000F056
:10198000DDBC00BF402D05D101B0BDE8F04002F044
:10199000F5B800BF01B0F0BD428D52B1428D012AB1
:1019A00016D1202918BF082946D1396821F4806151
:1019B00039600021009179690091B969009100991D
:1019C000396841F4007139600021016501B0F0BD52
:1019D000428D022A14D110295AD8012214238A4098
:1019E000C0F201031A4253D03A6842F480623A606E
:1019F000002200927A690092BA690092009A56E039
:101A00003A6842F480623A607A68120534D54A1E18
:101A10001F2A08D8012303FA02F248F28103C8F210
:101A200000031A4202D111F5803F25D1796841F4B3
:101A30008051796020E000BF11F5803F0AD13968FC
:101A400021F48061396079680905B2D5396821F4DB
:101A5000806110E0122B01D10129A6D11029F5D8FF
:101A6000012202FA01F11422C0F201021142EDD06A
:101A7000396841F4806139600021009179690091F1
:101A8000B969009100990021016501B0F0BD00BF66
:101A90003A6842F400623A60002200927A69009249
:101AA000BA690092009A3A6822F480623A607A68D1
:101AB000120512D54A1E1F2A08D8012303FA02F282
:101AC00048F28103C8F200031A4202D111F5803FA7
:101AD00003D1796841F4805179600021016501B03A
:101AE000F0BD000070470000002804BF01207047CF
:101AF000F0B581B0044690F83D0028B9002084F884
:101B00003C00204600F09CFB242084F83D00206827
:101B1000016821F001010160016841F400410160A8
:101B2000016821F40041016000F022FE636848F280
:101B3000A16CC0F2010C40F60011C0F23D016345FA
:101B40003CBF48F28041C0F21E01884202D201200F
:101B500001B0F0BD4DF68361C4F21B31A0FB011250
:101B60002168970CD1F804E04FF496762EF03F05EB
:101B700045EA92454D60774348F638160D6AC0F243
:101B80004106A7FB067625F03F07634538BF960C54
:101B9000721C3A430A62CA6948F2A0664CF6FF77A3
:101BA000C0F20106B34222EA07020BD801385B00FB
:101BB000B0FBF3F001306FF31F30042898BF04200E
:101BC0001BE000BFA768013857B119277B43B0FB62
:101BD000F3F001306FF31F3070B100F5804007E083
:101BE00003EB4303B0FBF3F001306FF31F3018B188
:101BF00000F5004001E000BF01201043C861086803
:101C0000D4E9072320F0C000104318430860886817
:101C100048F2FF3204F10C0790438CCF1843104375
:101C2000A6698860C86820F0FF0038433043C86068
:101C3000086840F00100086000202021206484F83A
:101C40003D10206384F83E0001B0F0BD70470000F5
:101C500070470000704700002DE9F04784B004464B
:101C600000201F46164689460290FFF763FB94F852
:101C70003D10202924D10546206800BF81698907CD
:101C80001AD5FFF757FB411B20681A29F6D3816943
:101C90008907F3D500202021206384F83D1084F8C3
:101CA0003E00216C41F02001216484F83C000220B8
:101CB00004B0BDE8F08700BF94F83C10012903D1BF
:101CC000022004B0BDE8F087012184F83C100168CF
:101CD000C90703D1016841F0010101600168DDF825
:101CE000308021F400610160222184F83D10102130
:101CF00084F83E100021216466626785618D0227A9
:101D0000C0F201072185A7F10211E162E16A0268D0
:101D100011F5803F42F48062026018BF01293DD175
:101D2000016841F48071016020464FF001110022EA
:101D30004346009501F0E0FF50B120680068C005FF
:101D400044BF4FF400702064012004B0BDE8F08768
:101D50002069B0F5804F27D149F00100C0B2216859
:101D600042460861204639462B4602F0ABF800286F
:101D7000EAD1208D022861D0012849D0002840F006
:101D80007380002003902068416903918169039169
:101D90000399016841F40071016071E00829BFD026
:101DA000216B1129BCD0BFE7062000EAD9162068B4
:101DB00006F1F0010161B91D204642462B4602F0B2
:101DC00081F80028C0D120685FFA89F101612046BE
:101DD000394642462B4602F075F80028B4D100205F
:101DE0000390206800224169434603918169039171
:101DF0000399016841F48071016020464FF00111A0
:101E0000009501F079FF002897D146F0F100A6E790
:101E10002068016821F480610160EFF3108072B6E0
:101E2000002003902068416903918169039103991F
:101E3000016841F40071016062B621E02068016828
:101E400041F400610160EFF3108072B6002003904E
:101E5000206841690391816903910399016821F424
:101E60008061016062B60BE02068016841F4806126
:101E700001600021039141690391806903900398F7
:101E8000208D002800F0CC8040F20C094BF2895ADA
:101E90000237C2F20009C1F2F84A23260EE000BF61
:101EA00010690870606A218D01306062481E2085CB
:101EB000618D01396185010400F0B28080B2032890
:101EC0000CD802282CD001284AD1204641462A4667
:101ED00002F064F8002800F09F8035E72046414674
:101EE0002A4602F05BF800287FF42EAF2068616A72
:101EF00000690870606A2268411C208D61620138A7
:101F00002085638D013B638553695B07D3D580B220
:101F10000328C5D1106820F480601060C0E700BFBE
:101F20002046394600224346009501F0E5FE002890
:101F30007FF40AAFEFF3108072B62068616A02681E
:101F400042F40072026000690870606A218D0130FD
:101F50006062481E2085608D0138608562B65BE056
:101F60002046394600224346009501F0C5FE002870
:101F70007FF4EAAE2068016821F480610160EFF32C
:101F8000108072B62068616A00690870606A218DED
:101F90000130013960622185618D01396185D9F88F
:101FA0000010C908A1FB0A12110A7143029102999B
:101FB00001390291029900293ED021684A695207ED
:101FC0001AD40299013902910299A9B321684A6988
:101FD000520711D4029901390291029961B3216823
:101FE0004A69520708D4029901390291029919B33A
:101FF00021684A695207DAD50A6842F400720A6019
:1020000009690170606A218D01306062481E208577
:10201000608D0138608562B62068616A006940E7BA
:10202000202084F83D00002084F83E0084F83C0025
:1020300004B0BDE8F08700BF00202021206384F8B1
:102040003D1084F83E00216C41F02001216462B60D
:1020500084F83C00012004B0BDE8F0872DE9F0438E
:1020600083B01E46174689460446FFF763F994F885
:102070003D10202924D10546206800BF81698907C9
:102080001AD5FFF757F9411B20681A29F6D3816941
:102090008907F3D500202021206384F83D1084F8BF
:1020A0003E00216C41F02001216484F83C000220B4
:1020B00003B0BDE8F08300BF94F83C10012903D1C0
:1020C000022003B0BDE8F083012184F83C100168D0
:1020D000C90703D1016841F001010160016840F2C4
:1020E000020821F400610160212184F83D101021D3
:1020F00084F83E100021216467626685618DC0F21C
:1021000001082185A8F10211E162E16A0A9E11F538
:10211000803F18BF01291DD1016841F48071016021
:1021200020464FF0011100223346009501F0E4FDF6
:1021300050B120680068C00544BF4FF400702064AF
:10214000012003B0BDE8F0832069B0F5804F07D1CE
:10215000FE2015E00829DFD0216B1229DCD0DFE753
:10216000062000EAD9102168F030086108F1060164
:10217000204632462B4601F0A5FE0028E0D1FF2084
:10218000216800EA090008612046414632462B4694
:1021900001F098FE0028D3D1002002902068416908
:1021A000029180690290029806E000BF2046314605
:1021B0002A4601F043FD18BB208D68B32046314606
:1021C0002A4601F033FFD8B9606A2168024612F846
:1021D000013B0B616262628D013A6285228D531E62
:1021E00023854F697F07E1D51B04DFD04378023098
:1021F0000B616062608D01386085901E2085D5E797
:10220000206C04289CD12068016841F400710160B1
:10221000012003B0BDE8F0832068016841F400713B
:102220000160202084F83D00002084F83E0084F8FE
:102230003C0003B0BDE8F083704700007047000029
:102240002DE9F04385B0044645F200402168C4F210
:10225000000000278142CDE903770297019703D060
:1022600005B0BDE8F08300BF41F21805C4F20205D5
:10227000296840F26C0841F008012960296800F5DE
:10228000384001F0080100910099C021019112210C
:1022900002910321049101A9C4F20208FEF742FF52
:1022A0006868802640F400106860686840F28C0519
:1022B00000F400100090009808F11400C2F200052C
:1022C0004FF02009C5E900072846C5E90276C5E9AF
:1022D0000477C5E90697FEF7CFFE002818BFFEF782
:1022E000B5FBA5636C6240F2D005C2F20005102078
:1022F0000021C5E900802846C5E90216C5E9041198
:10230000C5E90691FEF7B8FE002818BFFEF79EFB50
:102310001F200021002265636C6200F08DF81F20F1
:1023200000F078F820200021002200F085F820201D
:1023300000F070F805B0BDE8F083000070470000C1
:102340007047000040F2040040F24021C2F2000059
:10235000C2F2000100780A6810440860704700006B
:1023600080B542F20000C4F20200016841F01001A1
:102370000160032000F08CF80F2000F005F800F059
:1023800027F8002080BD000070B540F20406C2F2BC
:10239000000640F20C013278C2F200014FF47A7369
:1023A0000968B3FBF2F20446B1FBF2F1084600F013
:1023B00007FC0F2C4FF0010508D838B94FF0FF305B
:1023C00021460022002500F037F87460284670BDD1
:1023D00082B041F21800C4F202000168022241F00A
:1023E00001010160016801F0010101910199416859
:1023F00041F080514160406800F0805000900098AA
:102400000420C4F20100016862F31A61016002B0A5
:1024100070470000002848BF704700F01F010122EC
:1024200002FA01F11C2202EAD0004EF20012CEF2B2
:10243000000281507047000010B54EF60C5CCEF2E1
:10244000000CDCF80030C3F3022E8EF00704042CDD
:1024500028BF0424BEF103034FF0FF3E0EFA04F43C
:1024600038BF0023A14399400EFA03F39A43114366
:1024700000F00F0200F160430901043A03F56443E0
:102480006244002848BF02F10C03197010BD00001F
:102490004EF60C51CEF200010A684FF6FF031A40C7
:1024A00060F30A2242F0806040F0FD7008607047DF
:1024B0002DE9F04182B00446007841F21C06C007C5
:1024C000C4F202064AD030685FEAC00808D4306817
:1024D00040F080503060306800F0805001900198EA
:1024E00047F20007C4F200073868C00512D4386804
:1024F00040F480703860FEF71DFF05463868C0055F
:1025000008D4FEF717FF401B6428F7D9032002B058
:10251000BDE8F081706810F4407012D0616801F479
:10252000407188420DD0706840F24042C4F24222AD
:10253000012320F4407113600023C0071360716011
:1025400026D17068616820F440700843B8F1000F2C
:10255000706003D4306820F08050306020688107BC
:1025600007D556F8181CA26821F44041114346F8DB
:10257000181CC00607D556F8180CE16820F4800036
:10258000084346F8180C002002B0BDE8F08100BFF7
:10259000FEF7D0FE054641F2883700BF706880071D
:1025A000CFD4FEF7C7FE401BB8424FF00300F5D969
:1025B000EAE70000002804BF012070472DE9F0433E
:1025C00081B042F20008C4F202080446D8F80000C4
:1025D0000D4600F0070088420CD2D8F8000020F029
:1025E00007002843C8F80000D8F8000000F00700F2
:1025F000A8426CD1206841F204098107C4F20209A3
:1026000017D5410705D5D9F8001041F4E061C9F8A4
:102610000010010705D5D9F8001041F46051C9F840
:102620000010D9F80010A26821F0F0011143C9F898
:102630000010C00742D1D8F8000000F00700A842FF
:102640000CD9D8F8000020F007002843C8F8000093
:10265000D8F8000000F00700A84238D120684107F0
:1026600007D5D9F80010E26821F4E0611143C9F8F8
:102670000010000708D5D9F80000216920F4605047
:1026800040EAC100C9F80000D9F8002002F00C00AF
:10269000082841F20020C0F27A004DD145F23603FD
:1026A000C2F38341C0F60003595CD20338D440F62C
:1026B0000010C0F23D0048433EE000BF606859F89A
:1026C000041C022808D0012826D1890306D4012041
:1026D00001B0BDE8F08300BF8901F8D5D9F800103A
:1026E00021F003010843C9F80000FEF723FE064667
:1026F00041F28837D9F80000616800F00C00B0EBB7
:10270000810F98D0FEF716FE801BB842F2D9032045
:1027100001B0BDE8F08300BF8907D8D5DEE700BF70
:10272000D9F8002045F23403C2F34042C0F600035A
:102730009A5C4843B0FBF2F0D9F8001045F21C0255
:10274000C1F30311C0F60002515C40F20C0220FA02
:1027500001F140F20800C2F200000068C2F200027B
:102760001160FFF711FE002001B0BDE8F08300000A
:1027700040F20C0041F20401C2F20000C4F2020176
:102780000068096845F22C02C1F30221C0F600027C
:10279000515CC8407047000040F20C0041F2040157
:1027A000C2F20000C4F202010068096845F22C027E
:1027B000C1F3C221C0F60002515CC840704700005E
:1027C000002804BF012070472DE9F04182B0044683
:1027D000007841F20006C007C4F202060CD070680F
:1027E00000F00C00042840F081803068800303D59D
:1027F0006068002800F04681207880071BD570684B
:1028000010F00C0F09D0706800F00C00082840F0A0
:1028100087807068C00300F183803068800703D52B
:102820002069012840F02E813068616920F0F800AD
:1028300040EAC10030602078000713D420784007B8
:102840002CD4E569002D00F01881706800F00C00B0
:10285000082840F0A780012D40F00481012002B03B
:10286000BDE8F081A069002800F084800020C4F257
:1028700042200121C0F88014FEF75CFD054600BF30
:10288000706A800700F1B280FEF754FD401B0228F9
:10289000F6D9032002B0BDE8F08100BFF0695FEA1D
:1028A000C00808D4F06940F08050F061F06900F091
:1028B00080500090009847F20007C4F20007386883
:1028C000C00549D4386840F480703860FEF732FDA6
:1028D000054600BF3868C0053ED4FEF72BFD401BFF
:1028E0006428F7D9032002B0BDE8F081706800F0D9
:1028F0000C00082803D17068C0033FF576AF61680B
:102900003068002900F00C81B1F5A02F00F00081A3
:10291000B1F5803F40F01A8140F480301CE100BFE7
:102920002069002840F20000C4F2422000F08880B4
:1029300001210160FEF7FEFC054600BF30688007FC
:102940003FF572AFFEF7F6FC401B0228F6D90320D4
:1029500002B0BDE8F08100BFE168306A002900F0F4
:102960009D80052900F09280012940F0AF8040F061
:102970000100B1E00020C4F242200021C0F8801420
:10298000FEF7D8FC054600BF706A80077FF556AF9A
:10299000FEF7D0FC401B0228F6D9032002B0BDE8A8
:1029A000F08100BF0027C4F2422700203866FEF7FE
:1029B000C1FC022D05460DD13068800140F1DE805A
:1029C000FEF7B8FC401B02284FF00300F4D902B018
:1029D000BDE8F081306880014FD5FEF7ABFC401BAD
:1029E00002284FF00300F5D9F1E700BF40F20C00D8
:1029F000C2F20000006844F6D351C1F26201A0FBAC
:102A00000101480A019000BF00BF0198411E002843
:102A100001913FF413AF00BF0198411E00280191BE
:102A20003FF40CAF00BF0198411E002801913FF414
:102A300005AF00BF0198411E00280191E4D1FDE6D9
:102A400000210160FEF776FC054600BF3068800774
:102A50007FF5F1AEFEF76EFC401B02284FF003003D
:102A6000F4D9B4E77068216A00F480328A4209D14F
:102A7000616A00F47010884204D1002002B0BDE801
:102A8000F08100BF012002B0BDE8F08140F00400F9
:102A90003062306A40F001001EE000BF20F001000B
:102AA0003062306A20F004003062FEF743FC0546D5
:102AB00041F28837306A800720D5FEF73BFC401B87
:102AC000B8424FF00300F5D981E700BF20F00100C4
:102AD0003062306A20F004003062FEF72BFC0546BD
:102AE00041F28837306A800708D4FEF723FC401B88
:102AF000B842F7D9032002B0BDE8F081B8F1000F69
:102B00003FF59FAEF06920F08050F06199E600BF7C
:102B100040F480203060306840F480301CE000BF1A
:102B200020F480303060306820F480203060FEF780
:102B300001FC0546306880037FF55EAEFEF7FAFBC8
:102B4000401B64284FF00300F4D940E720F48030A4
:102B50003060306820F480203060FEF7EBFB0546E3
:102B6000306880033FF548AEFEF7E4FB401B642865
:102B7000F6D9032002B0BDE8F08100BF206AB0F5AD
:102B8000803F05D17168A26821F400311143716062
:102B90007168626A21F47411114308437060012066
:102BA0003866FEF7C7FB0446306880013FF565AF25
:102BB000FEF7C0FB001B02284FF00300F4D906E724
:102BC000411E0020B0EB116F1CBF012070474EF278
:102BD0001002CEF2000251604EF62351CEF20001F7
:102BE000F0230B7007219060116070477047000060
:102BF00070470000B0B582B001680A68CC684B69C4
:102C000002F02F05202D04F0200505D125B102B0DA
:102C1000BDE8B04001F06EBB5FEA027C1EBF03F06E
:102C2000010E04F4907313EB0E0341D1036BD50630
:102C300018D5012B16D114F0100313D000220192E5
:102C40000A6801924A680192019A496949064BD47F
:102C5000818DC28DC38D002B18BF914240F0F4814D
:102C600002B0B0BD13062DD514F080032AD090F821
:102C70004120212AF4D18268B2F5805F03D1026934
:102C8000002A00F06782026A531C036212784A60CD
:102C9000C28C013A1304C284E2D1C86820F08000DB
:102CA000C860C86840F04000C86002B0B0BD00BF56
:102CB000D30718BF14F4807340F0D080530700F19D
:102CC000D380D8E05206CBD514F04002C8D0CA68F1
:102CD00022F04002CA60202180F8411002B0BDE815
:102CE000B04000F027BC00BFC16B0A68526893B2C5
:102CF000002BB5D0858DAB42B2D2C285896920291F
:102D000000F0A180016851E8031F026821F480717E
:102D100042E80313DBB1016851E8031F026821F4A4
:102D2000807142E8031393B1016851E8031F026800
:102D300021F4807142E803134BB1016851E8031F8D
:102D4000026821F4807142E80313002BDAD1016894
:102D500051E8051F026821F0010142E80513C3B3E1
:102D6000016851E8051F026821F0010142E80513DE
:102D70007BB3016851E8051F026821F0010142E8B8
:102D8000051333B3016851E8051F026821F0010102
:102D900042E80513002BDAD11BE000BF016851E8BF
:102DA000051F026821F0400142E80513DBB101680C
:102DB00051E8051F026821F0400142E8051393B174
:102DC000016851E8051F026821F0400142E805133F
:102DD0004BB1016851E8051F026821F0400142E84B
:102DE0000513002BDAD1202180F842100021016365
:102DF000016851E8031F026821F0100142E8031343
:102E0000DBB1016851E8031F026821F0100142E8BC
:102E1000031393B1016851E8031F026821F0100108
:102E200042E803134BB1016851E8031F026821F027
:102E3000100142E80313002BDAD1C16B04460846A7
:102E4000FDF7C6FF204602214163818DC28D891A9C
:102E500089B202B0BDE8B040FFF7C8BE436C43F092
:102E600001034364530706D5BEF1000F03D0436C42
:102E700043F002034364930706D5BEF1000F03D06D
:102E8000436C43F004034364BCF1000F06D55EEAD3
:102E9000050303D0436C43F008034364436C002BE9
:102EA0003FF4DEAE920605D525B1044601F022FAC4
:102EB000216820464969426C01F0400102F0080295
:102EC000891800F0B98000BF016851E8031F02684B
:102ED00021F4907142E80313BBB3016851E8031F6A
:102EE000026821F4907142E8031373B3016851E85A
:102EF000031F026821F4907142E803132BB30168A9
:102F000051E8031F026821F4907142E80313002B7B
:102F1000DAD11AE0016851E8051F026821F00101C9
:102F200042E80513DBB1016851E8051F026821F092
:102F3000010142E8051393B1016851E8051F0268D9
:102F400021F0010142E805134BB1016851E8051F6A
:102F5000026821F0010142E80513002BDAD1016B70
:102F6000012924D1016851E8031F026821F01001F2
:102F700042E80313DBB1016851E8031F026821F046
:102F8000100142E8031393B1016851E8031F02687E
:102F900021F0100142E803134BB1016851E8031F0F
:102FA000026821F0100142E80313002BDAD120213E
:102FB00080F842100021016301684969490640F127
:102FC000C380016851E8051F026821F0400142E812
:102FD0000513DBB1016851E8051F026821F04001CB
:102FE00042E8051393B1016851E8051F026821F01A
:102FF000400142E805134BB1016851E8051F026822
:1030000021F0400142E80513002BDAD1C16B002901
:1030100000F09A8044F2E922C0F600020446084615
:103020004A63FDF7F9FE00283FF41AAEE06B416BEE
:1030300002B0BDE8B04008470446FFF7D9FD0020C4
:10304000606402B0B0BD00BF891A00BF026852E8D8
:10305000032F036822F4907243E80325BDB302688E
:1030600052E8032F036822F4907243E8032575B3F6
:10307000026852E8032F036822F4907243E80325A4
:103080002DB3026852E8032F036822F4907243E8DC
:103090000325002DDAD11AE0026852E8052F0368F3
:1030A00022F0010243E80525DDB1026852E8052F50
:1030B000036822F0010243E8052595B1026852E851
:1030C000052F036822F0010243E805254DB102688F
:1030D00052E8052F036822F0010243E80525002D80
:1030E000DAD1202280F8422000220263026852E8EE
:1030F000032F036822F0100243E80325DDB10268C4
:1031000052E8032F036822F0100243E8032595B12B
:10311000026852E8032F036822F0100243E80325F7
:103120004DB1026852E8032F036822F0100243E811
:103130000325002DDAD1022289B2426302B0BDE834
:10314000B040FFF753BD00BF02B0BDE8B040FFF78D
:103150004FBD00BF026A32F8023B6FF35F234B6042
:10316000026295E5002804BF0120704710B50446AF
:1031700090F8410028B9002084F84000204600F073
:1031800063F8242084F841002068D4E90212C3685F
:1031900023F40053C360036923F440531A430261CC
:1031A000D4E904231143C268194341F20C639A43E2
:1031B0001143C1604169A26921F44071114343F692
:1031C0000002C4F201029042416103D0FFF7D0FA3D
:1031D00002E000BFFFF7E0FAD4E9002319214843D9
:1031E0009900B0FBF1F048F21F5CC5F2EB1CA0FBAC
:1031F0000C314FF69C734909C0F6FF7301FB0300C5
:10320000322303EB0010A0FB0C03F02000EA531064
:1032100000EB0110C3F343110844906010692021B2
:1032200020F490401061506920F02A005061D0686D
:1032300040F40050D0600020606484F8411084F8AD
:103240004210606310BD0000B0B586B0006844F263
:103250000041C4F2000188424FF00001CDE90411A1
:10326000CDE9021162D044F60001C4F200018842A7
:1032700030D043F60001C4F20101884240F08C8056
:1032800041F21800C4F20200016840F6000441F463
:10329000804101600168C4F2010401F480410191A0
:1032A0000199016841F004010160006802A900F081
:1032B0000400019001984FF40070029002200390E6
:1032C000032005902046FDF72DFF4FF4806002900B
:1032D000252552E041F21800C4F20200416841F491
:1032E00080214160416801F48021019101990168C8
:1032F00041F008010160006802A900F00800019097
:1033000001984FF480600290022003900320059002
:1033100040F60000C4F2010000F580642046FDF78D
:1033200001FF4FF400602725029026E041F21800CB
:10333000C4F20200416840F6000441F400314160EB
:103340004168C4F2010401F400310191019901685E
:1033500041F004010160006802A900F0040001903E
:10336000019804200290022003900320059020463B
:10337000FDF7D8FE0820029026250020CDE90300A5
:1033800002A92046FDF7CEFE284600210022FFF7C5
:1033900053F82846FFF73EF806B0B0BD704700006E
:1033A0002DE9F04381B0044690F84100202809D16E
:1033B00000294FF0010018BF002A07D101B0BDE875
:1033C000F08300BF022001B0BDE8F08300206064FC
:1033D00021201D460E4684F841001746FDF7AAFF3E
:1033E000A784E784A1688146B1F5805F02D1206996
:1033F00000285DD037460020E28C2168002A5DD08D
:103400006A1C24D0002D4AD0804600BF0868000600
:1034100008D4FDF78FFFA0EB0900A8427AD82168F5
:10342000C868F3E717B117F8010B04E038F8020B8E
:1034300000276FF35F204860E08C0138E084E08C67
:103440000028E3D13AE000BF0A68120609D40A68EE
:10345000120606D40A6812065CBF0A685FEA0262B6
:10346000F2D51FB117F8012B05E000BF30F8022B91
:1034700000276FF35F224A60E28C013AE284E28C1B
:10348000002AE4D11AE000BF30F8022B00276FF3C6
:103490005F224A60E28C013AE284E28C72B10A68EF
:1034A000120635D5002FEFD017F8012BF1E700BF3A
:1034B00000273046E28C2168002AA1D10868400626
:1034C0001ED42DB3681C14D1086840062AD408689D
:1034D000400627D40868400624D4086840064FF008
:1034E0000000F1D50DE000BF2068C168006840060B
:1034F00018D4FDF71FFFA0EB0900A842F4D909E09A
:103500000020202184F8411001B0BDE8F08300BF05
:10351000FDF710FF0320202184F8411001B0BDE821
:10352000F08300BF0020202184F8411001B0BDE8E5
:10353000F083000070470000FEE7000040F2141026
:10354000C2F20000FDF700BF40F21410C2F200000A
:10355000FDF7A4BF10B581B000210091406A40F290
:103560000C01C2F2000190F83DC009684BF289528B
:10357000C908C1F2F842A1FB0212110A23225143E9
:103580000091009911B3009901390091016809680F
:1035900089051FD50099C9B10099013900910168C9
:1035A0000968890516D5009981B100990139009102
:1035B0000168096889050DD5009939B1009901396B
:1035C0000091016809688905DBD403E0016C41F0D2
:1035D00020010164446B4FF0000E002C1CBF002141
:1035E000A162816B00291CBF00228A620268002C44
:1035F000136823F480631360A0F82AE018BFC4F8AE
:1036000034E000291CBF00234B63116821F0010145
:10361000116090F83D1060290CD1202180F83D10F8
:10362000002180F83E10016401B0BDE81040FDF7B4
:1036300087BE00BF0CF02801282911D1116841F084
:1036400001011160116841F4806111600021016382
:10365000282180F83D1001B0BDE81040FEF742BAC5
:10366000202180F83D10002180F83E1001B0BDE817
:103670001040FEF737BA000010B5044690F83D1030
:1036800090F83E00B0F1100218BF0122403818BF78
:103690000120024208BF222934D001F02800282846
:1036A0003AD100202063282084F83D00206841683A
:1036B000090542D5416821F400614160606B90F8D2
:1036C0002110012958D1A06B43F25551C0F60001D9
:1036D0004163FDF7A1FB002861D0206841694906DC
:1036E00006D50069616A0870616A2068013161620B
:1036F000016821F001010160202084F83D00A06BE9
:103700004BE000BF2068026822F400620260426859
:10371000120505D50CE000BF20684268120507D4E9
:10372000602905D0202184F83D10002184F83E1046
:103730000021216341680905BCD494F83D1060293B
:1037400050D1202184F83D100021216441694906AF
:1037500006D50069616A0870616A2068013161629A
:10376000016821F0010101602046FDF7E9FD206CB0
:10377000000717D11BE000BF43F25551C0F600010E
:103780004163FDF749FB50B12168606B0A6822F084
:1037900001020A60202184F83D10416B8847206CAB
:1037A000000704D02068416821F4E061416094F88A
:1037B0003D00216C490758BF10BD282810D10020BA
:1037C000CFF6FF70E06200212020216384F83D00E5
:1037D000204684F83E10BDE81040FEF737BA00BF1F
:1037E00010BD00BF4169490605D50069616A0870CE
:1037F000606A013060622046FEF774F9206C0007B1
:10380000D0D1D4E7C16A428D042A07D10168426A47
:103810004B6823F480634B60096911E0428D032AF1
:1038200016D102680229536823F48063536005D0DF
:10383000042903D0116821F4806111601169426A82
:103840001170416A01314162418D013941857047F2
:10385000428D022A12D14A1E0F2A19D8DFE802F03F
:103860000812181218181818181818181818180804
:103870000268136823F480630EE000BF0168426AA7
:10388000CAE700BF0268136843F4806304E000BF26
:103890000268136843F4007313601269436A1A7074
:1038A000426AD0F800C0531C4362438D013B4385FC
:1038B000DCF810305370426A036801324262428D74
:1038C000013A42855A6822F440725A60202280F8F8
:1038D0003D2090F83E300022402B80F83E2003D15E
:1038E0000263FEF7A9BC00BFB1F1080218BF1222A3
:1038F000203918BF11460163FEF7AAB981B090F8CC
:103900003D10222910D1C16A428D042A0ED30168CC
:10391000426A09691170416A01314162418D013980
:103920004185418D03295DD001B07047C36A012AEA
:1039300058D8022B56D00022009240F20C02C2F25C
:10394000000212684BF28953D208C1F2F843A2FB7D
:1039500003231A0A02EB82020092009A013A0092B3
:10396000009A002A46D0026813689B051AD5009A6F
:10397000013A0092009AEAB3026813689B0511D5D8
:10398000009A013A0092009AA2B3026813689B055C
:1039900008D5009A013A0092009A5AB30268136857
:1039A0009B05DAD4136823F480631360536823F40F
:1039B000E06353601269436A1A70426A01324262DC
:1039C000428D013A4285202280F83D2090F83E3019
:1039D0000022402B80F83E2028D1026301B0FEF780
:1039E0002BBC00BF0068416821F48061416001B0D8
:1039F000704700BF016C41F0200101640168426A18
:103A00004B6823F4E0634B6009691170416A01312E
:103A10004162418D01394185202180F83D1000210E
:103A200080F83E1001B0FEF75DB800BFB1F10802AA
:103A300018BF1222203918BF1146016301B0FEF7EA
:103A400007B90000C16A90F83D20212A18BF7047CD
:103A5000428D4AB1416A026811F8013B136141622B
:103A6000418D01394185704711F5803F18BF082904
:103A700018D101684A6822F4E0624A600A6842F498
:103A800000720A6000212022016380F83D2090F836
:103A90003E2080F83E10402A08BFFEF7CFBBFEF75D
:103AA000D9B800BF2029E4D001684A6822F4E06256
:103AB0004A6011210163002180F83E10202180F826
:103AC0003D10FEF7C7B8000090F83D1090F83EC0DA
:103AD000C26A038D002B08BF212919D0212905D0E6
:103AE000BCF1400F08BF222900D07047418D69B357
:103AF00090F83E10402908BF00F040B8416A0268C3
:103B000011F8013B13614162418D013941857047D4
:103B100012F5803F18BF082A1ED101684A6822F4B6
:103B2000E0624A600A6842F400720A6000212022C2
:103B3000016380F83D2090F83E2080F83E10402A36
:103B400008BFFEF77BBBFEF785B800BF0068416881
:103B500021F4806141607047202ADED001684A6804
:103B600022F4E0624A6011210163002180F83E10D6
:103B7000202180F83D10FEF76DB8000090F83D1050
:103B8000026D5AB1026D012A14D10168826CD2B261
:103B90000A61016D01310165704700BFC26C816C23
:103BA000012A15D10268C9B21161016D02310165A6
:103BB000704700BF026D022A12D1222918D1016874
:103BC0000A6842F480720A60016D01310165704734
:103BD0000268C1F307211161016D01310165704770
:103BE00000684169090644BF00210161704700BFB8
:103BF000428D5AB1212909D1416A026811F8013B6D
:103C000013614162418D013941857047428D002A1F
:103C100008BF2129EAD101684A6822F4E0624A60BB
:103C20000A6842F400720A6000212022016380F8D1
:103C30003D2080F83E10FEF701BB000070B5036820
:103C4000044653F8140F400711D40E46481C29D0DF
:103C500086BB00BF1868400527D4FDF76BFB2368BF
:103C600053F8140F400737D518684007F2D50020E5
:103C700070BD00BF18684007F9D41868400514D417
:103C800018684007F3D4186840050ED41868400738
:103C9000EDD41868400508D4186840074FF00000BC
:103CA00048BF70BD18684005E4D56FF480601860A7
:103CB000042012E0154603E053F8140F4007D6D451
:103CC00018684005F1D4FDF735FB401B2368B0426E
:103CD000F2D958694007EFD4202000212022216327
:103CE00084F83D2084F83E10226C104320640120AB
:103CF00084F83C1070BD00002DE9F04105460068D5
:103D00001E46144601F47F0201338FB242D0DDF823
:103D10001880B2F5803F40F0878040693840C01B72
:103D2000B0FA80F04009A04240F0C8804EB924E0CB
:103D300040693840C01BB0FA80F04009A04240F012
:103D4000BD80FDF7F7FAA0EB08012868B142EFD972
:103D500041693940C91BB1FA81F14909A142E7D152
:103D60009BE000BF40693840C01BB0FA80F04009BA
:103D7000A0424FF0000040F0A280FDF7DBFA286877
:103D800041693940C91BB1FA81F14909A142E9D120
:103D900083E000BFB2F5803F24D100BF41693940C4
:103DA000C91BB1FA81F14909A14240F087804169FC
:103DB0003940C91BB1FA81F14909A14240F07E8026
:103DC00041693940C91BB1FA81F14909A14275D154
:103DD00041693940C91BB1FA81F14909A142DDD0DD
:103DE0006CE000BF81693940C91BB1FA81F1490912
:103DF000A14263D181693940C91BB1FA81F14909F6
:103E0000A1425BD181693940C91BB1FA81F14909ED
:103E1000A14253D181693940C91BB1FA81F14909E5
:103E2000A142DFD04AE000BF80693840C01BB0FA31
:103E300080F04009A04241D146B923E08069384072
:103E4000C01BB0FA80F04009A04237D1FDF772FAEA
:103E5000A0EB08012868B142F0D981693940C91B3B
:103E6000B1FA81F14909A142E8D116E080693840F0
:103E7000C01BB0FA80F04009A0424FF0000018BF0C
:103E8000BDE8F081FDF756FA286881693940C91B01
:103E9000B1FA81F14909A142E8D10020202128632B
:103EA00085F83D1085F83E00296C41F02001296419
:103EB00085F83C000120BDE8F08100BF0020BDE88E
:103EC000F0810000F0B581B0044600681D464369EA
:103ED0008FB203EA0701B94202D1002001B0F0BD60
:103EE0004169164601323CD0490512D47EB300BF69
:103EF000FDF720FA411B2068B14203D941693940DE
:103F0000B9422BD141693940B942E6D041694905EE
:103F1000EED5016841F4007101606FF48061416188
:103F2000042000212022216384F83D2084F83E10E3
:103F3000226C1043206484F83C10012001B0F0BDD5
:103F400041693940B942C8D041694905E1D4FDF71A
:103F5000F1F9206841693940B942F1D02020E0E709
:103F600041694905D5D441693940B942B5D0416963
:103F70004905CED441693940B942AED041694905BD
:103F8000C7D441693940B942A7D041694905C0D475
:103F900041693940B942E3D19FE7000070B504465A
:103FA0000068154650F8143F5A063DD40E4629B90C
:103FB00026E000BF50F8141F490635D40168C90631
:103FC00021D4FDF7B7F9411B2068B142F2D941690C
:103FD0004906EFD400202021206384F83D1084F8A6
:103FE0003E00206C40F0200018E000BFFDF7A2F971
:103FF000206850F8141F4906ECD50168490613D40F
:104000000168C906F2D56FF010010160002020217F
:10401000206384F83D1084F83E00206C206400206A
:1040200084F83C00012070BD002070BD70B50368AD
:10403000044653F8140F000611D40E46481C29D02C
:1040400086BB00BF1868400527D4FDF773F92368C5
:1040500053F8140F000637D518680006F2D5002073
:1040600070BD00BF18680006F9D41868400514D464
:1040700018680006F3D4186840050ED418680006C6
:10408000EDD41868400508D4186800064FF0000009
:1040900048BF70BD18684005E4D56FF480601860B3
:1040A000042012E0154603E053F8140F0006D6D49E
:1040B00018684005F1D4FDF73DF9401B2368B04274
:1040C000F2D958690006EFD4202000212022216374
:1040D00084F83D2084F83E10226C104320640120B7
:1040E00084F83C1070BD0000B0B584B040F21800F8
:1040F00042F20041C2F20000C4F2010100244FF478
:104100006022012504730475C261C0E90014846053
:104110000561FCF75DFD002818BFFCF797FC40F235
:104120001800C2F2000001A9CDE901450394FCF793
:1041300093FC002818BFFCF789FC04B0B0BD000058
:1041400080B582B041F21400C4F20200016800227E
:1041500041F0010101600068002100F001000190C0
:1041600001980B20FEF768F90B20FEF753F9102099
:1041700000210022FEF760F91020FEF74BF9112014
:1041800000210022FEF758F9112002B0BDE880405E
:10419000FEF740B983B041F21800C4F20200016892
:1041A00041F020010160016801F0200102910299B3
:1041B000016841F004010160016801F0040101910E
:1041C0000199016841F008010160006800F00800F1
:1041D0000090009803B0704780B540F2141045F28B
:1041E0000041C2F20000C4F2000148F2A0620023C4
:1041F000C0F201024FF00A0C4FF4804E80E80E50DE
:10420000C0E90533C0E90733FDF76EFC002808BF9D
:1042100080BDBDE88040FCF719BC000080B540F2CD
:10422000681043F60001C2F20000C4F2010100234D
:104230004FF00C0C4FF4165280E80E00C0E9033327
:10424000C0E905C3C361FEF78DFF002808BF80BD2C
:10425000BDE88040FCF7FABB80B540F2B01044F2F4
:104260000041C2F20000C4F2000100234FF00C0C28
:104270004FF4165280E80E00C0E90333C0E905C3CD
:10428000C361FEF76FFF002808BF80BDBDE8804016
:10429000FCF7DCBB80B540F2F81044F60001C2F236
:1042A0000000C4F2000100234FF00C0C4FF4165232
:1042B00080E80E00C0E90333C0E905C3C361FEF71F
:1042C00051FF002808BF80BDBDE88040FCF7BEBBA1
:1042D000FEE70000FEE700007047000070470000A6
:1042E000FEF730B870470000406A0021C185C184E4
:1042F000FEF77EBC81B090F84210222921D183685C
:104300000246B3F5805F09D152F8281F52F8183CD5
:10431000002B63D003685B680AE000BF52F8281FD7
:1043200013B90369002BF5D003685B6803F07F03C2
:104330000B70116801311160C18D01390A04C1850A
:1043400002D001B0704700BF0168CA6822F02002A5
:10435000CA60CA6822F48072CA604A6922F0010207
:104360004A61202180F8421000214163026B012A3A
:104370003CD10163016851E8031F026821F010017C
:1043800042E80313DBB1016851E8031F026821F022
:10439000100142E8031393B1016851E8031F02685A
:1043A00021F0100142E803134BB1016851E8031FEB
:1043B000026821F0100142E80313002BDAD10168F2
:1043C0000A68D20606D5002200920A68009249685F
:1043D00000910099818D01B0FEF708BC0268526817
:1043E0006FF35F2221F8022B8162A5E701B0FEF78F
:1043F000D5BF000040F26810C2F20000FEF7FABB21
:1044000040F2B010C2F20000FEF7F4BB40F2F81028
:10441000C2F20000FEF7EEBBFEE7000080B582B0FE
:10442000019040F26810C2F2000001A901224FF68B
:10443000FF73FEF7B5FF019802B080BDA6B0FDF78F
:104440008FFF00240120CDE90944CDE90744049001
:1044500008904FF4E0104FF4803102250D9004A82D
:104460002094CDE91E44CDE90514CDE90B51FEF7AA
:10447000A7F928B1EFF3108072B600BFFEE700BFC6
:104480000F20CDE921054FF48060CDE9240421A857
:1044900002212394FEF78EF820B1EFF3108072B65C
:1044A000FEE700BF02201D904FF400401F901DA8A2
:1044B000FDF7FEFF20B1EFF3108072B6FEE700BFFC
:1044C000FFF768FEFFF73CFEFFF70EFEFFF784FEE6
:1044D000FFF7A4FEFFF7C0FEFFF7DCFE0020ADF8FB
:1044E0008400ADF87400FCF79DF9FCF7BDF95EA1FE
:1044F00053A2002808BF1146084600F07DFD40F297
:1045000000090DF1840A0DF1740B45F25656C4F200
:10451000201904AF38E000BF4FF47A70FCF7EEFDCD
:1045200020B27043010C01EBD070A9B24AF6AB2265
:104530004A43ADF88400540C40F6BA3200B29142BE
:1045400088BF4FF47A74ADF87440FBF73FFF4946DB
:10455000FBF7E8FDFBF778FF054620468846FBF7AA
:104560003EFF4946FBF7DEFDFBF76EFF0B46029070
:104570003846642143A2CDE90058039300F0AEF819
:104580004DA0394600F09AF84FF47A70FCF7B6FD6A
:10459000FCF73CFA10B10024002517E05046FCF768
:1045A000FFF9BDF8844000284FF064004FF000068A
:1045B00018BF3446FCF7A2FD5846FCF7B7F9BDF822
:1045C0007450002818BF354645F256564FF47A709D
:1045D000FCF794FDFCF71AFA90B95046FCF7E0F9A5
:1045E00000284FF06400BDF8841008BF0C44FCF7AD
:1045F00085FD5846FCF79AF910B9BDF874000544DA
:104600004FF47A70FCF77AFDFCF700FA00287FF48B
:1046100083AF5046FCF7C4F900284FF06400BDF8A2
:10462000841008BF0C44FCF769FD5846FCF77EF97E
:1046300000287FF471AFBDF8740005446CE700BF3B
:104640004454483132E6B8A9E6B9BFE5BAA6E4BC9D
:10465000A0E6849FE599A8E5889DE5A78BE58C9663
:10466000E5AE8CE688900D00E6A0A1E58786E58F93
:1046700082E695B0E8AFBBE58F96E5A4B1E8B4A5B6
:104680000D000000E78EAFE5A283E58F82E695B0CE
:104690000D0AE6B8A9E5BAA6EFBC9A252E3166E266
:1046A00084830DE6B9BFE5BAA6EFBC9A252E316624
:1046B00025250D0A00000000257300000FB4054BEE
:1046C00010B503A9044A029800F0F4F810BC5DF894
:1046D00014FB00001D440008000000200FB47CB54E
:1046E0000C0009AD01D0611E00E00021CDE9000100
:1046F000064B6A462946089800F0DCF8002C02D0E8
:10470000009A002111707CBC5DF814FBE34F000897
:1047100002E008C8121F08C1002AFAD1704770478A
:10472000002001E001C1121F002AFBD170470000E8
:104730002DE9FF5F82B00021DDE90430020DDDF8D4
:1047400040B0034318D044F61050A2F2FF32424367
:104750001514119801281FD0A5EB0B00401C5FEA2F
:10476000000A4FF000064E4FDFF83891B046504631
:1047700015D5CAF1000413E0119801244AA30128B9
:1047800001D16FEA0B010298119AC0E90031C0E92A
:10479000024206B0BDE8F09FCBF10000DFE704461F
:1047A0000021404A491842EB0450CDE9001012E0C4
:1047B000E00707D032463B4640464946FBF763FFD9
:1047C0008046894632463B4610461946FBF75BFF5A
:1047D00006460F466410002CEAD1DDE90401DDE94C
:1047E0000023BAF1000F06DAFBF74DFF42464B46B5
:1047F000FBF749FF05E0FBF77AFD42464B46FBF726
:1048000076FD04460E460022284BFBF7C7FF03D86F
:104810004FF0FF30014607E00022254B204631468D
:10482000FBF7BEFCFBF7A1FF102409E0002C0ADB1C
:104830000A220023FBF731FE039B30321A55641E17
:1048400050EA0102F2D1641C039AC4F1110314442A
:10485000119A012A03D0012208430DD10AE008432E
:1048600004D000204FF0110B119072E7A3EB0B0561
:104870006D1E0DE05B4504DD4FF0000205F1010502
:1048800004E003DA4FF00002A5F10105002AECD0A4
:1048900002981199C0E90231C0E9004579E70000AA
:1048A000000014400000F03F300000000000F04322
:1048B0000000E03F2DE9FF4F95B09B468946064634
:1048C00000250FE2252877D100242746F84A012148
:1048D000059400E0044316F8013F203B01FA03F081
:1048E0001042F7D130782A2811D06FF02F0330789A
:1048F000A0F13002092A16D8059A44F0020402EB0E
:10490000820203EB42021044761C0590EFE759F84F
:10491000042B0592002A03DA504244F40054059017
:1049200044F00204761C30782E2816D116F8010FB8
:1049300044F004042A280DD06FF02F023078A0F143
:104940003003092B09D807EB870302EB4303C71891
:10495000761CF3E759F8047B761C30786C280FD06E
:1049600006DC4C2817D068280DD06A2814D104E042
:10497000742810D07A280FD10DE044F400140AE016
:1049800044F4801401E044F440147278824202D16D
:1049900004F58014761C761C307866280BD013DC66
:1049A000582877D009DC002875D04528F6D046284D
:1049B000F4D047281AD19DE118E0632835D0642847
:1049C00079D0652812D195E1702873D008DC67286A
:1049D000F1D069286FD06E280DD06F2806D1B5E0D0
:1049E00073282CD0752875D0782874D05A4617991A
:1049F00090476D1C75E1C4F30250022809D00328CA
:104A00000DD0D9F8001004280DD00D6009F104096B
:104A100067E1D9F80010EA17C1E90052F6E7D9F8C2
:104A200000100D80F2E70D70F0E719F8041B8DF807
:104A3000001000208DF80100EA46012003E059F83B
:104A400004AB4FF0FF3061074FF0000102D40DE0DE
:104A500008F101018846B9420FDA8045F8DB1AF8FF
:104A600008100029F4D108E008F1010188468142CC
:104A7000FADB1AF808100029F6D105985B46A0EB7E
:104A8000080721463846179A00F094FA284400EBAC
:104A9000080507E04DE029E10DE01AF8010B5A4640
:104AA00017999047B8F10108F7D25B46214638467E
:104AB000179A13E142E00A220092C4F302524FF027
:104AC000000A022A08D059F804CB032A4FEAEC71F5
:104AD0000AD00DE029E02AE009F1070121F00702E0
:104AE000F2E802C1914609E00FFA8CFC4FEAEC7142
:104AF000042A03D14FFA8CFC4FEAEC71002907DA43
:104B00000A460021DCF1000C61EB02012D2202E0DB
:104B1000220504D52B228DF80420012203E0E207B0
:104B200001D02022F7E7904659E00A2102E0102246
:104B30000DE010214FF0000A00910BE010224FF021
:104B4000000A44F004040827009203E008224FF012
:104B5000000A0092C4F30252022A05D059F804CB8D
:104B60000021032A08D009E009F1070121F007021A
:104B7000F2E802C1914605E01FFA8CFC042A01D13B
:104B80000CF0FF0C4FF00008220728D5702806D043
:104B9000009B83F0100353EA0A0305D00EE0402285
:104BA0008DF80420012208E05CEA010206D03022E0
:104BB0008DF804208DF8050002229046009B83F0BA
:104BC000080353EA0A030AD15CEA010201D1620731
:104BD00005D530228DF804204FF001087F1E58289B
:104BE00004D034A003900EA802900DE036A0F9E79F
:104BF00053466046009AFBF750FC84460398825C5B
:104C00000298401E029002705CEA0100F0D1029806
:104C100006A9081A00F1200A600702D524F480349E
:104C200000E00127574502DDA7EB0A0000E0002065
:104C300000EB0A01009005984144401A0590E003FA
:104C400006D45B462146179A059800F0B3F905444F
:104C5000002706E001A85A46C05D179990476D1CD1
:104C60007F1C4745F6DBE0030CD55B462146179ACF
:104C7000059800F09FF9054404E030205A46179942
:104C800090476D1C0099481E00900029F5DC08E053
:104C9000029802995A460078491C02911799904748
:104CA0006D1CBAF10001AAF1010AF1DC65E1000016
:104CB00009280100303132333435363738396162F2
:104CC00063646566000000003031323334353637B6
:104CD00038394142434445460000000000F058F98D
:104CE0000544761C307800287FF4ECAD19B02846D6
:104CF000BDE8F08F620700D4062709F1070222F011
:104D0000070CFCE80223E14603F000485FEA080CC8
:104D100002D00FF2702C0DE05FEA045C02D50FF2B6
:104D2000682C07E05FEAC47C02D00FF2602C01E03F
:104D3000AFF2700C4FF0FF3823F00043CDF850C0B5
:104D400065280CD006DC452809D046281DD0472808
:104D50003DD13DE0662818D067287ED138E000219B
:104D6000112F01DB112000E0781CCDE9000106A91C
:104D70000EA8FFF7DDFCDDE90F010E9A039100217B
:104D8000009207F1010A04914DE04FF000400097B6
:104D9000CDE9011006A90EA8FFF7CAFCDDE90F0254
:104DA00003920E9B11990022DDF80CA0009304924F
:104DB00011B9791C00EB010AB7EB0A0004D4C0F169
:104DC000FF3007F1010A0490AAEB0700019044E0CC
:104DD000012F00DA01270021112F01DD112000E051
:104DE0003846CDE9000106A90EA8FFF7A1FCDDE9D0
:104DF0000F010E9A0391002104910092BA462107F7
:104E00000CD40399514500DA8A46BAF1010F05DD49
:104E1000009AAAF10101515C302908D0B84202DAA7
:104E200010F1040F06DA0121CDE9011015E0AAF115
:104E30000101E9E7002805DC049901440491AAEB8B
:104E4000000102E0411C514500DD8A460499401AE8
:104E5000401C01904FF000400290200704D40198BC
:104E6000504501DBCDF8048000208DF84F000298FA
:104E70000DF14F07B0F1004F25D02B200E90029876
:104E80004FF0020800280CDA404202902D200E90CC
:104E900007E00A210298FBF7EAFA3031029007F89E
:104EA000011DB8F10001A8F10108F2DC0298002808
:104EB000EFD1791E0E980870307800F0200040F095
:104EC000450007F8020D12A8C01B00F1070814984E
:104ED000007800B1012000EB0A01019801EBE071BC
:104EE00005984144401A401E0590E00306D45B46F5
:104EF0002146179A059800F05DF80544149800784B
:104F000018B15A46179990476D1CE00324D55B46AB
:104F10002146179A059800F04DF805441CE00498C6
:104F2000002807DBDDE90301884203DD0098405CCF
:104F3000179901E0179930205A469047049805F1D7
:104F40000105401C04900198401E019004D12E20C0
:104F50005A46179990476D1CBAF10001AAF1010A4F
:104F6000DDDC05E017F8010B5A46179990476D1CD8
:104F7000B8F10001A8F10108F4DC5B462146179A5C
:104F80000598ABE62D0000002B000000200000007B
:104F90002DE9F041044600251E461746880404D436
:104FA00005E039462020B0476D1C641EF9D528461F
:104FB000BDE8F0812DE9F041044600251E469046EB
:104FC000C80301D5302700E02027880404D505E078
:104FD00041463846B0476D1C641EF9D52846BDE8E9
:104FE000F0814A68002A06D00A68531C0B601070D2
:104FF0004868401E4860704710B5044601E0FFF75E
:105000000DFA14F8010B04490028F8D1BDE810404E
:105010000A20FFF703BA0000000000200000000093
:105020000000000001020304060708090000000058
:1050300001020304010202030405060708090A0B22
:105040000C0D0E0F1010000068500008000000202A
:1050500010000000104700087850000810000020E1
:105060003806000020470008000000000100000092
:085070001000000000127A009C
:04000005080000ED02
:00000001FF
