:020000040800F2
:1000000048060020010100088531000895280008F5
:100010008131000855010008C932000800000000C5
:100020000000000000000000000000008D3100080A
:100030007D010008000000008931000891310008AE
:100040001B0100081B0100081B0100081B01000820
:100050001B0100081B0100081B0100081B01000810
:100060001B0100081B0100081B01000859010008C2
:100070001B0100081B0100081B0100081B010008F0
:1000800065010008710100081B0100081B01000840
:100090001B0100081B0100081B0100081B010008D0
:1000A0001B0100081B0100081B0100081B010008C0
:1000B0001B0100081B0100081B010008A5280008FF
:1000C000992800081B0100081B0100081B010008FB
:1000D0001B010008A5320008B1320008BD3200083B
:1000E0001B0100081B0100081B010008DFF80CD0F1
:1000F00000F018F8004800471533000848060020B3
:100100000648804706480047FEE7FEE7FEE7FEE7B1
:10011000FEE7FEE7FEE7FEE7FEE7FEE795310008B3
:10012000ED0000081CB509480090094801900546FB
:10013000009C06E0E06840F0010394E8070098475F
:100140001034AC42F6D3FFF7D5FF00002836000884
:1001500048360008FEE7000040F24800C2F2000006
:1001600000F054BA40F2D000C2F2000000F04EBAE3
:1001700040F28C00C2F2000000F048BA7047000064
:10018000EFF3108072B600BFFEE7000010B581B03B
:100190000022009290F82420012A03D1022108466F
:1001A00001B010BD4B680122062B80F8242033D803
:1001B000D0F800C003EB83035A1F1F23DCF834E0A0
:1001C00003FA02F40B682EEA040403FA02F2224353
:1001D000CCF83420092B03EB430249D9DCF80CE0BE
:1001E0001E3A0724896894402EEA0404914023F0C3
:1001F00001022143102ACCF80C1043D142F20841ED
:10020000C4F20101A1F10802944543D0816A41F092
:1002100020018162012136E0D0F800C00C2B03EBF5
:10022000830213D8233A1F23DCF830E003FA02F4E8
:100230000B682EEA040403FA02F22243CCF83020C1
:10024000092B03EB4302C9D812E000BF413A1F2338
:10025000DCF82CE003FA02F40B682EEA040403FA3B
:1002600002F22243CCF82C20092B03EB4302B5D831
:10027000DCF81030072489689440A3439140194367
:10028000CCF810100021002280F82420084601B08C
:1002900010BD00BF0A681202F4D40A68102B42F4A1
:1002A00000020A60EED140F21001C2F200010968BA
:1002B0004DF68362C4F21B32A1FB0212910C01EBDA
:1002C00081014900009100990029DBD00099013992
:1002D000009100990029D5D0009901390091009929
:1002E0000029CFD000990139009100990029C9D087
:1002F000009901390091009900294FF00001E5D1E2
:10030000C1E70000002804BF01207047B0B50446D3
:10031000806A28B121688868C0070CD115E000BF49
:100320000020E06284F82400204600F097F821685D
:100330008868C00709D0886820F00100886000F054
:100340007FFB21688A68D20726D1A06AC0063AD40A
:10035000A06A41F2021290430230A062E069D4E93F
:10036000013240EA030C531EB3FA83F35D091346CE
:10037000B2F5807F18BF2B02207D257B01284CEA37
:1003800045002CD135B3A56A45F02005A562E56A84
:1003900045F00105E56222E0054602E08868C007F5
:1003A000D3D000F04DFB401B21680328F6D38868AA
:1003B000C007F3D0A06A40F01000A062E06A40F0ED
:1003C0000100E062A06AA06A40F01000A062012073
:1003D000B0BD00BFA56903EB4533A3F5C0534D681D
:1003E000B2F5807F25F4694543EA05034B608B68CD
:1003F0004FF2FD75CFF6E17503EA050343EA00030A
:100400008B6001D0012A07D122690023CFF6F07357
:1004100003EB025201E000BF0022CB6A23F4700319
:100420001A43CA62896840F6FE62CFF61F72114015
:10043000814207D10020E062A16A012262F301013A
:10044000A162B0BDA06A40F0100020F00200A062DE
:10045000E06A40F00100E0620120B0BD70B586B0F6
:10046000044640F60000C4F20100216800F5E052A5
:10047000002691420596CDE90366029602D006B0A9
:1004800070BD00BF41F21801C4F202010A6842F4D3
:1004900000720A600A6802F400720192019A0A6806
:1004A00042F004020A60096801F004010191019917
:1004B000012102910321039102A900F0B9F940F250
:1004C00048050820C2F20005C4F202004FF4007291
:1004D000C5E9000605F1100080214FF400634FF0DC
:1004E000200C80E80C102846C5E90261EE6100F09E
:1004F0005DF9002818BFFFF743FE25626C6206B065
:1005000070BD0000014690F82100022816D108684D
:10051000D1E90FC3026822F00E020260026822F0E5
:1005200001020260012000FA03F2CCF8042081F8F5
:1005300021000020002281F82020704704208863D9
:100540000120002281F820207047000090F821103F
:10055000022923D1026840F2040C1168C4F2020C93
:1005600021F00E01116013682F21C4F202018A42AA
:1005700023F00103136015DD3023C4F202039A4215
:100580001CD04423C4F202039A421BD05823C4F265
:1005900002039A421CD14FF4803321E0042181638D
:1005A000012070470823C4F202039A420ED01C2394
:1005B000C4F202039A420BD1102311E04FF480736E
:1005C0000EE000BF4FF480530AE000BF012307E0B4
:1005D0000CF168014FF080738A4208BF4FF480131A
:1005E0000121CCF8003080F82110416B0022002955
:1005F00080F8202004BF0020704780B58847002085
:1006000080BD000090F821007047000010B5D0E9CF
:100610000FCE0168DCF800300A6823FA0EF35C079D
:100620002AD512F0040427D00A68920603D40A6877
:1006300022F004020A602F22C4F20202914240F228
:100640000402C4F202025BDD3023C4F202039942C9
:1006500072D04423C4F20203994273D05823C4F2E7
:100660000203994240F07A804FF480231360C16AFC
:10067000002940F098806FE09C0727D512F0020413
:1006800024D00A68920606D40A6822F00A020A6098
:10069000012280F821202F22C4F20202914240F26E
:1006A0000402C4F202023BDD3023C4F20203994289
:1006B00060D04423C4F2020399425FD05823C4F2AD
:1006C0000203994260D14FF4003365E01B0743D524
:1006D00012F0080208BF10BD0A6822F00E020A607C
:1006E000012101FA0EF2CCF80420816380F8211078
:1006F000016B0022002980F8202054D12CE000BF9B
:100700000823C4F20203994222D01C23C4F202033C
:10071000994223D140231360C16A002943D11BE0D1
:100720000823C4F2020399422CD01C23C4F2020312
:10073000994229D120232FE04FF480631360C16ACE
:1007400089BB09E04FF480431360C16A59BB03E0E1
:1007500004231360C16A31BB10BD00BF02F16804FD
:100760004FF08063A14208BF4FF480031360C16A59
:10077000C9B9F1E74FF400730EE000BF4FF4005326
:100780000AE000BF022307E002F168044FF00073A3
:10079000A14208BF4FF400131360816A00220029B0
:1007A00080F82020D8D0BDE8104008470146002836
:1007B0004FF0010008BF70472DE9F043D1F800C0A9
:1007C0004FF6F873CBF6FD734CF6CD426344CCF68E
:1007D000CC42A3FB02236FF0030202EA9302002340
:1007E000C4F2020301F10C08C1E90F320222D1E97F
:1007F000019E98E8F00181F82120DCF8002043F602
:10080000F0739A4342EA090242EA0E0222432A4363
:1008100032433A4342EA0802CCF8002000228A63BD
:1008200081F8210081F820200020BDE8F0437047C6
:100830002DE9F04F82B00E68002E00F0FD8041F2ED
:100840000042C4F20102042340F2004E904208BF6D
:1008500003234FF6FF7CC4F2010E00930024012312
:10086000C1F2100C4FF0000A4FF000094BE000BF3E
:1008700041F20002C4F20102009F904208BF022729
:1008800004F00C030F229A402BEA020207FA03F34A
:100890004FEA9A051A4346F825204E6840F20C4567
:1008A000F202DEF8082054BF22EA080242EA0802F7
:1008B000C4F20105CEF808202A68B30254BF22EA28
:1008C000080242EA08022A60B303DEF8042054BF9B
:1008D00022EA080242EA0802F303CEF80420DEF816
:1008E00000204FF0010354BF22EA080242EA080246
:1008F000CEF800200E680AF1010A36FA0AF204F175
:10090000040400F0998003FA0AFB16EA0B08F1D000
:100910004E68664512DC122E56D8DFE806F0350B1D
:100920004D4955555555555555555555555555459B
:10093000510000BFD1F80C9046E000BF4FF6FF72A7
:10094000C1F2210296420FDC0022C1F2110296424E
:100950001AD00022C1F21202964215D00022C1F232
:100960002102964210D02FE00022C1F222029642CC
:100970000AD00022C1F23102964205D00022C1F213
:100980003202964220D100BF8A684AB1012A14BFC0
:10099000C0F814B0C0F810B04FF0080914E000BF60
:1009A0004FF0040910E000BFCA6802F104090BE02F
:1009B0004FF0000908E000BFCA6802F1080903E02F
:1009C000CA6802F10C0900BF02462646B8F5807FCE
:1009D00024BF0432203E17680F25B54027EA0505DD
:1009E00009FA06F635431560CA79D2067FF582AF5B
:1009F00041F21803C4F202031A68AEF57E7642F0A3
:100A000001021A601A6802F001020192019A2AF0AA
:100A1000030256F802B040F60002C4F2010290420E
:100A200008D040F60042C4F2010290427FF420AFA9
:100A3000012725E7002723E702B0BDE8F08F00007B
:100A400040F24020C2F2000000687047704700008A
:100A500070470000F0B581B0044600680025476982
:100A6000426894F83E1002F48076FA0508D53EB14B
:100A70006FF4807242610268012542F40042026014
:100A8000BA0505D5002E1EBF02356FF40072426113
:100A90007A0516D5AEB1628D94F83D30D4F830C0E9
:100AA000202908BF002A23D06FF48062402905F175
:100AB0000405426101D0102903D1016841F400719D
:100AC0000160380506D52EB1206808356FF4006145
:100AD000416100E055B1206C40EA050120462164E7
:100AE00001B0BDE8F04001F075BF00BF01B0F0BD3E
:100AF00003F0F701212909D0282B08BFBCF1210FF1
:100B000004D06FF4806141610435DAE794F83D1058
:100B1000E26AB2F1080318BF0123203A18BF01228C
:100B2000134208BF282921D0212939D10021CFF62D
:100B3000FF71E16221212163202184F83D10002111
:100B400084F83E10426822F4E06242606FF48062F2
:100B50004261026822F4806202604269120648BF64
:100B60000161204600F082FCABE700BF0021CFF618
:100B7000FF71E162416821F4E06141606FF48061DE
:100B80004161016821F4806101600020202120631F
:100B900084F83D1084F83E00204600F0DDFB90E72D
:100BA0006FF4806141618CE7F0B581B007687968C6
:100BB000C26A90F83E5090F83DE0402D01D0102DD3
:100BC00034D1BB697C69E60718D1B2F12A4F00F035
:100BD0006782B2F52A0F00F06382220701F40072E7
:100BE00040F10681002A00F00381416B426C00292C
:100BF000D2B23A6140F0B080B0E000BF8A0543D481
:100C00004FF0010C7A685B076ED4120500F1488240
:100C100004F04402402A40F0598111F4806100F050
:100C2000558101B0BDE8F04002F016B8026C01F445
:100C30000073002A0CBFBC6900247D69AA0729D56E
:100C400043B3016C002918BFBC6990F83D1001F056
:100C50002801282940F0C0807968012221F48061B0
:100C6000796004F0040182EA910122064FF0180233
:100C700058BF0C22825A002380F83C3001B0BDE8F6
:100C8000F040FFF7E5BE00BFC16AB1F52A0F3DD1C4
:100C9000012140E0EA066FD5002B6DD090F83D5061
:100CA000796821F4E061796000210091796900910F
:100CB000396841F0010139600099396821F4806197
:100CC00039607968090540F1798105F0F70104463A
:100CD000222940F0498154F8381F0A68526824F8E4
:100CE0000E2C34F80E2C47E1120500F1D98104F0E6
:100CF0008402802A40F0F88011F4806100F0F480D2
:100D000001B0BDE8F04002F08DB800BFC16AB1F19A
:100D10002A4F01D10821C16290F83E1040290BD121
:100D2000016D406C002900F0FE0018BF40F001008A
:100D3000386101B0F0BD00BF0169B1F5804F40F0EE
:100D4000898090F83D10426C212902F0FE0218BF04
:100D500001323A61416B09B1896A39B9806B002867
:100D600000F09E81806A002800F09A81786840F443
:100D70000060786001B0F0BD0EF0F702212A79D151
:100D800005F08402802A40F0C18011F4806100F0F7
:100D9000BD8090F83D10428D002A00F08181426AAA
:100DA00012F8013B3B614262428D013A4285428D1D
:100DB000002A08BF292940F07381796821F48061F5
:100DC000796021210163282180F83D1001B0BDE840
:100DD000F04000F04BBB00BF002100917A69009207
:100DE000BA690092009A80F83C1001B0F0BD00BFD3
:100DF0004FF0010CA6078CEA522C7FF503AF002AB6
:100E00003FF400AF90F83E20C16A036B90F83D605C
:100E1000222E40F09F80066D002E08BF402A00F071
:100E20009980026D002A40F03D810269B2F5404F81
:100E300040F038810021009179690091B9690091F1
:100E40000099396841F480713960016D01310165A3
:100E500001B0F0BD016D002900F00081016D012994
:100E600040F01E81406C062101EAD010F13038615B
:100E700001B0F0BD05F04402402A57D111F4806161
:100E800054D090F83D10428D002A00F009813A6953
:100E9000436A1A70426A01324262428D013A4285C7
:100EA000428D002A08BF2A2940F0FA8001684A686A
:100EB00022F480624A6022210163282180F83D10DB
:100EC00001B0BDE8F04000F0CFBA00BF04F004016B
:100ED000012282EA910151EA0C0140F0E18001B067
:100EE000BDE8F04001F03CBE04F00401012282EABA
:100EF000910151EA0C0140F0D380BEF1210F40F086
:100F0000C78001B0BDE8F04001F04ABF690740F179
:100F1000C780002B00F0C480418D002900F0C08004
:100F2000416A11F8012B3A610FE000BF690740F1F7
:100F3000B780002B00F0B480418D002900F0B08014
:100F40003969426A1170416A01314162418D01394A
:100F50004185A5E00020009078690090B869009074
:100F6000009801B0F0BD00BF54F8341F0A68526801
:100F700024F80A2C34F80A2C1AB1026C42F004024C
:100F800002647A68064622F4006208467A60FFF737
:100F900039FB01463046012910D0206842F6B101E4
:100FA000C0F600014163FFF7D1FA0146304629B18E
:100FB000216804464A6B084690472046418D61B13E
:100FC00001684A6952072FD44A69520639D4418DC3
:100FD00019B1016C41F004010164016C21B101B04F
:100FE000BDE8F04001F0F6BC2A2D08D100210163D4
:100FF000282180F83D10044600F036FA204690F88B
:101000003D10282932D10021CFF6FF71C1620021A5
:101010002022016380F83D2080F83E1001B0BDE839
:10102000F04000F099B900BF0969426A1170426A44
:10103000016801324262428D013A42854A69520694
:10104000C5D50969426A1170416A01314162418D19
:1010500001394185418D0029BBD1BEE7406C062195
:1010600001EAD010F030386101B0F0BD016B2229E7
:1010700018BF222D14D100212022016380F83D20C9
:1010800080F83E1001B0BDE8F04000F0EDB900BFBF
:10109000402D05D101B0BDE8F04001F01DBF00BFFB
:1010A00001B0F0BD428D52B1428D012A16D12029E6
:1010B00018BF082946D1396821F4806139600021C0
:1010C000009179690091B96900910099396841F4FA
:1010D000007139600021016501B0F0BD428D022A26
:1010E00014D110295AD8012214238A40C0F20103D6
:1010F0001A4253D03A6842F480623A600022009269
:101100007A690092BA690092009A56E03A6842F40D
:1011100080623A607A68120534D54A1E1F2A08D8C0
:10112000012303FA02F248F28103C8F200031A42D3
:1011300002D111F5803F25D1796841F48051796061
:1011400020E000BF11F5803F0AD1396821F48061A9
:10115000396079680905B2D5396821F4806110E0F9
:10116000122B01D10129A6D11029F5D8012202FAAA
:1011700001F11422C0F201021142EDD0396841F4AC
:10118000806139600021009179690091B96900910D
:1011900000990021016501B0F0BD00BF3A6842F43A
:1011A00000623A60002200927A690092BA69009265
:1011B000009A3A6822F480623A607A68120512D581
:1011C0004A1E1F2A08D8012303FA02F248F28103BB
:1011D000C8F200031A4202D111F5803F03D17968A9
:1011E00041F4805179600021016501B0F0BD00003B
:1011F00070470000002804BF01207047F0B581B09F
:10120000044690F83D0028B9002084F83C002046B0
:1012100000F0ACF8242084F83D002068016821F03B
:1012200001010160016841F400410160016821F49D
:101230000041016000F032FB636848F2A16CC0F22B
:10124000010C40F60011C0F23D0163453CBF48F27D
:101250008041C0F21E01884202D2012001B0F0BDDF
:101260004DF68361C4F21B31A0FB01122168970C7B
:10127000D1F804E04FF496762EF03F0545EA92450A
:101280004D60774348F638160D6AC0F24106A7FB59
:10129000067625F03F07634538BF960C721C3A432B
:1012A0000A62CA6948F2A0664CF6FF77C0F20106EE
:1012B000B34222EA07020BD801385B00B0FBF3F01F
:1012C00001306FF31F30042898BF04201BE000BFDB
:1012D000A768013857B119277B43B0FBF3F0013001
:1012E0006FF31F3070B100F5804007E003EB43035C
:1012F000B0FBF3F001306FF31F3018B100F5004080
:1013000001E000BF01201043C8610868D4E9072349
:1013100020F0C000104318430860886848F2FF328C
:1013200004F10C0790438CCF18431043A6698860E2
:10133000C86820F0FF0038433043C860086840F0B8
:101340000100086000202021206484F83D10206303
:1013500084F83E0001B0F0BD704700007047000007
:101360007047000070470000704700002DE9F0430F
:1013700085B0044645F200402168C4F20000002711
:101380008142CDE903770297019703D005B0BDE80C
:10139000F08300BF41F21805C4F20205296840F24B
:1013A0006C0841F008012960296800F5384001F017
:1013B000080100910099C02101911221029103219D
:1013C000049101A9C4F20208FFF732FA6868802686
:1013D00040F400106860686840F28C0500F400106A
:1013E0000090009808F11400C2F200054FF02009A7
:1013F000C5E900072846C5E90276C5E90477C5E9CD
:101400000697FFF7D3F9002818BFFEF7B9FEA563CA
:101410006C6240F2D005C2F2000510200021C5E93F
:1014200000802846C5E90216C5E90411C5E9069100
:10143000FFF7BCF9002818BFFEF7A2FE1F2000210D
:10144000002265636C6200F08DF81F2000F078F8D0
:1014500020200021002200F085F8202000F070F804
:1014600005B0BDE8F0830000704700007047000041
:1014700040F2080040F24021C2F20000C2F2000136
:1014800000780A68104408607047000080B542F296
:101490000000C4F20200016841F010010160032065
:1014A00000F08CF80F2000F005F800F027F800207D
:1014B00080BD000070B540F20806C2F2000640F29E
:1014C00010013278C2F200014FF47A730968B3FB5D
:1014D000F2F20446B1FBF2F1084600F007FC0F2CD3
:1014E0004FF0010508D838B94FF0FF3021460022EF
:1014F000002500F037F87460284670BD82B041F2D4
:101500001800C4F202000168022241F001010160EA
:10151000016801F0010101910199416841F0805198
:101520004160406800F08050009000980420C4F2B0
:101530000100016862F31A61016002B070470000A7
:10154000002848BF704700F01F01012202FA01F194
:101550001C2202EAD0004EF20012CEF200028150AC
:101560007047000010B54EF60C5CCEF2000CDCF8B3
:101570000030C3F3022E8EF00704042C28BF04248D
:10158000BEF103034FF0FF3E0EFA04F438BF002310
:10159000A14399400EFA03F39A43114300F00F025E
:1015A00000F160430901043A03F5644362440028F2
:1015B00048BF02F10C03197010BD00004EF60C512B
:1015C000CEF200010A684FF6FF031A4060F30A22C8
:1015D00042F0806040F0FD70086070472DE9F041F6
:1015E00082B00446007841F21C06C007C4F202062D
:1015F0004AD030685FEAC00808D4306840F08050B4
:101600003060306800F080500190019847F2000788
:10161000C4F200073868C00512D4386840F48070FE
:101620003860FFF70DFA05463868C00508D4FFF7A3
:1016300007FA401B6428F7D9032002B0BDE8F08107
:10164000706810F4407012D0616801F440718842F3
:101650000DD0706840F24042C4F24222012320F4CF
:10166000407113600023C0071360716026D1706859
:10167000616820F440700843B8F1000F706003D433
:10168000306820F0805030602068810707D556F818
:10169000181CA26821F44041114346F8181CC006EA
:1016A00007D556F8180CE16820F48000084346F886
:1016B000180C002002B0BDE8F08100BFFFF7C0F9B0
:1016C000054641F2883700BF70688007CFD4FFF726
:1016D000B7F9401BB8424FF00300F5D9EAE7000024
:1016E000002804BF012070472DE9F04381B042F289
:1016F0000008C4F202080446D8F800000D4600F0C5
:10170000070088420CD2D8F8000020F007002843D8
:10171000C8F80000D8F8000000F00700A8426CD11B
:10172000206841F204098107C4F2020917D5410774
:1017300005D5D9F8001041F4E061C9F8001001079F
:1017400005D5D9F8001041F46051C9F80010D9F856
:101750000010A26821F0F0011143C9F80010C00781
:1017600042D1D8F8000000F00700A8420CD9D8F800
:10177000000020F007002843C8F80000D8F8000057
:1017800000F00700A84238D12068410707D5D9F8F2
:101790000010E26821F4E0611143C9F8001000076D
:1017A00008D5D9F80000216920F4605040EAC10052
:1017B000C9F80000D9F8002002F00C00082841F216
:1017C0000020C0F27A004DD143F2EA53C2F38341C4
:1017D000C0F60003595CD20338D440F60010C0F2C2
:1017E0003D0048433EE000BF606859F8041C0228F1
:1017F00008D0012826D1890306D4012001B0BDE814
:10180000F08300BF8901F8D5D9F8001021F0030159
:101810000843C9F80000FFF713F9064641F288377C
:10182000D9F80000616800F00C00B0EB810F98D08F
:10183000FFF706F9801BB842F2D9032001B0BDE8DA
:10184000F08300BF8907D8D5DEE700BFD9F80020B4
:1018500043F2E853C2F34042C0F600039A5C4843A7
:10186000B0FBF2F0D9F8001043F2D052C1F30311EB
:10187000C0F60002515C40F2100220FA01F140F281
:101880000C00C2F200000068C2F200021160FFF713
:1018900011FE002001B0BDE8F083000040F210000E
:1018A00041F20401C2F20000C4F2020100680968BA
:1018B00043F2E052C1F30221C0F60002515CC8407D
:1018C0007047000040F2100041F20401C2F2000033
:1018D000C4F202010068096843F2E052C1F3C22178
:1018E000C0F60002515CC84070470000002804BFE9
:1018F000012070472DE9F04182B00446007841F2A2
:101900000006C007C4F202060CD0706800F00C009C
:10191000042840F081803068800303D56068002887
:1019200000F04681207880071BD5706810F00C0FFE
:1019300009D0706800F00C00082840F087807068BB
:10194000C00300F183803068800703D52069012837
:1019500040F02E813068616920F0F80040EAC10053
:1019600030602078000713D4207840072CD4E56934
:10197000002D00F01881706800F00C00082840F07D
:10198000A780012D40F00481012002B0BDE8F08164
:10199000A069002800F084800020C4F242200121C8
:1019A000C0F88014FFF74CF8054600BF706A800746
:1019B00000F1B280FFF744F8401B0228F6D903205B
:1019C00002B0BDE8F08100BFF0695FEAC00808D44A
:1019D000F06940F08050F061F06900F080500090B4
:1019E000009847F20007C4F200073868C00549D4E0
:1019F000386840F480703860FFF722F8054600BF71
:101A00003868C0053ED4FFF71BF8401B6428F7D99F
:101A1000032002B0BDE8F081706800F00C000828D7
:101A200003D17068C0033FF576AF61683068002964
:101A300000F00C81B1F5A02F00F00081B1F5803FDE
:101A400040F01A8140F480301CE100BF206900287A
:101A500040F20000C4F2422000F0888001210160C1
:101A6000FEF7EEFF054600BF306880073FF572AF16
:101A7000FEF7E6FF401B0228F6D9032002B0BDE8BE
:101A8000F08100BFE168306A002900F09D800529DF
:101A900000F09280012940F0AF8040F00100B1E0F9
:101AA0000020C4F242200021C0F88014FEF7C8FFD5
:101AB000054600BF706A80077FF556AFFEF7C0FF8E
:101AC000401B0228F6D9032002B0BDE8F08100BF18
:101AD0000027C4F2422700203866FEF7B1FF022D2E
:101AE00005460DD13068800140F1DE80FEF7A8FF89
:101AF000401B02284FF00300F4D902B0BDE8F0818A
:101B0000306880014FD5FEF79BFF401B02284FF045
:101B10000300F5D9F1E700BF40F21000C2F2000067
:101B2000006844F6D351C1F26201A0FB0101480AEA
:101B3000019000BF00BF0198411E002801913FF4B1
:101B400013AF00BF0198411E002801913FF40CAF74
:101B500000BF0198411E002801913FF405AF00BF6E
:101B60000198411E00280191E4D1FDE600210160A9
:101B7000FEF766FF054600BF306880077FF5F1AECF
:101B8000FEF75EFF401B02284FF00300F4D9B4E7D4
:101B90007068216A00F480328A4209D1616A00F4D7
:101BA0007010884204D1002002B0BDE8F08100BF6F
:101BB000012002B0BDE8F08140F004003062306ADC
:101BC00040F001001EE000BF20F001003062306AEA
:101BD00020F004003062FEF733FF054641F28837FB
:101BE000306A800720D5FEF72BFF401BB8424FF02C
:101BF0000300F5D981E700BF20F001003062306AB0
:101C000020F004003062FEF71BFF054641F28837E2
:101C1000306A800708D4FEF713FF401BB842F7D99B
:101C2000032002B0BDE8F081B8F1000F3FF59FAE90
:101C3000F06920F08050F06199E600BF40F4802008
:101C40003060306840F480301CE000BF20F4803009
:101C50003060306820F480203060FEF7F1FE0546E9
:101C6000306880037FF55EAEFEF7EAFE401B642815
:101C70004FF00300F4D940E720F480303060306842
:101C800020F480203060FEF7DBFE054630688003DC
:101C90003FF548AEFEF7D4FE401B6428F6D903207A
:101CA00002B0BDE8F08100BF206AB0F5803F05D1E9
:101CB0007168A26821F40031114371607168626A31
:101CC00021F4741111430843706001203866FEF757
:101CD000B7FE0446306880013FF565AFFEF7B0FE01
:101CE000001B02284FF00300F4D906E7411E002034
:101CF000B0EB116F1CBF012070474EF21002CEF204
:101D0000000251604EF62351CEF20001F0230B7019
:101D10000721906011607047704700007047000015
:101D2000B0B582B001680A68CC684B6902F02F0533
:101D3000202D04F0200505D125B102B0BDE8B0404A
:101D400001F030BA5FEA027C1EBF03F0010E04F41A
:101D5000907313EB0E0341D1036BD50618D5012BFD
:101D600016D114F0100313D0002201920A680192D8
:101D70004A680192019A496949064BD4818DC28D06
:101D8000C38D002B18BF914240F0F48102B0B0BD6A
:101D900013062DD514F080032AD090F84120212A73
:101DA000F4D18268B2F5805F03D10269002A00F0A5
:101DB0006782026A531C036212784A60C28C013A3D
:101DC0001304C284E2D1C86820F08000C860C868EB
:101DD00040F04000C86002B0B0BD00BFD30718BFDC
:101DE00014F4807340F0D080530700F1D380D8E022
:101DF0005206CBD514F04002C8D0CA6822F0400287
:101E0000CA60202180F8411002B0BDE8B04000F067
:101E10003FBD00BFC16B0A68526893B2002BB5D0BA
:101E2000858DAB42B2D2C2858969202900F0A1809C
:101E3000016851E8031F026821F4807142E803132E
:101E4000DBB1016851E8031F026821F4807142E8A8
:101E5000031393B1016851E8031F026821F48071F4
:101E600042E803134BB1016851E8031F026821F4F3
:101E7000807142E80313002BDAD1016851E8051F95
:101E8000026821F0010142E80513C3B3016851E87B
:101E9000051F026821F0010142E805137BB30168C8
:101EA00051E8051F026821F0010142E8051333B330
:101EB000016851E8051F026821F0010142E805139D
:101EC000002BDAD11BE000BF016851E8051F026852
:101ED00021F0400142E80513DBB1016851E8051F1C
:101EE000026821F0400142E8051393B1016851E80E
:101EF000051F026821F0400142E805134BB101685B
:101F000051E8051F026821F0400142E80513002B4B
:101F1000DAD1202180F8421000210163016851E8E4
:101F2000031F026821F0100142E80313DBB10168CE
:101F300051E8031F026821F0100142E8031393B136
:101F4000016851E8031F026821F0100142E8031301
:101F50004BB1016851E8031F026821F0100142E80B
:101F60000313002BDAD1C16B04460846FEF7CAFA08
:101F7000204602214163818DC28D891A89B202B047
:101F8000BDE8B040FFF7C8BE436C43F001034364B3
:101F9000530706D5BEF1000F03D0436C43F0020394
:101FA0004364930706D5BEF1000F03D0436C43F0A2
:101FB00004034364BCF1000F06D55EEA050303D0B9
:101FC000436C43F008034364436C002B3FF4DEAEE4
:101FD000920605D525B1044601F0E4F821682046B3
:101FE0004969426C01F0400102F00802891800F0D2
:101FF000B98000BF016851E8031F026821F49071A5
:1020000042E80313BBB3016851E8031F026821F4DF
:10201000907142E8031373B3016851E8031F02682B
:1020200021F4907142E803132BB3016851E8031FB8
:10203000026821F4907142E80313002BDAD11AE010
:10204000016851E8051F026821F0010142E805130B
:10205000DBB1016851E8051F026821F0010142E887
:10206000051393B1016851E8051F026821F00101D1
:1020700042E805134BB1016851E8051F026821F0E1
:10208000010142E80513002BDAD1016B012924D1AB
:10209000016851E8031F026821F0100142E80313B0
:1020A000DBB1016851E8031F026821F0100142E82A
:1020B000031393B1016851E8031F026821F0100176
:1020C00042E803134BB1016851E8031F026821F095
:1020D000100142E80313002BDAD1202180F84210CE
:1020E0000021016301684969490640F1C380016824
:1020F00051E8051F026821F0400142E80513DBB1F9
:10210000016851E8051F026821F0400142E805130B
:1021100093B1016851E8051F026821F0400142E8CF
:1021200005134BB1016851E8051F026821F0400119
:1021300042E80513002BDAD1C16B002900F09A8028
:1021400043F29912C0F60002044608464A63FEF7BD
:10215000FDF900283FF41AAEE06B416B02B0BDE818
:10216000B04008470446FFF7D9FD0020606402B084
:10217000B0BD00BF891A00BF026852E8032F036890
:1021800022F4907243E80325BDB3026852E8032F9E
:10219000036822F4907243E8032575B3026852E89D
:1021A000032F036822F4907243E803252DB30268DD
:1021B00052E8032F036822F4907243E80325002DB0
:1021C000DAD11AE0026852E8052F036822F0010212
:1021D00043E80525DDB1026852E8052F036822F0C7
:1021E000010243E8052595B1026852E8052F03680E
:1021F00022F0010243E805254DB1026852E8052F9F
:10220000036822F0010243E80525002DDAD12022DF
:1022100080F8422000220263026852E8032F03681C
:1022200022F0100243E80325DDB1026852E8032FD3
:10223000036822F0100243E8032595B1026852E8D2
:10224000032F036822F0100243E803254DB1026812
:1022500052E8032F036822F0100243E80325002D03
:10226000DAD1022289B2426302B0BDE8B040FFF782
:1022700053BD00BF02B0BDE8B040FFF74FBD00BF87
:10228000026A32F8023B6FF35F234B60026295E50E
:10229000002804BF0120704710B5044690F84100A3
:1022A00028B9002084F84000204600F063F824207C
:1022B00084F841002068D4E90212C36823F4005373
:1022C000C360036923F440531A430261D4E9042331
:1022D0001143C268194341F20C639A431143C16030
:1022E0004169A26921F44071114343F60002C4F22E
:1022F00001029042416103D0FFF7D0FA02E000BF33
:10230000FFF7E0FAD4E90023192148439900B0FB14
:10231000F1F048F21F5CC5F2EB1CA0FB0C314FF64C
:102320009C734909C0F6FF7301FB0300322303EBE2
:102330000010A0FB0C03F02000EA531000EB01108A
:10234000C3F34311084490601069202120F49040A9
:102350001061506920F02A005061D06840F40050AC
:10236000D0600020606484F8411084F842106063FB
:1023700010BD0000B0B586B0006844F20041C4F260
:10238000000188424FF00001CDE90411CDE90211AE
:1023900062D044F60001C4F20001884230D043F616
:1023A0000001C4F20101884240F08C8041F2180023
:1023B000C4F20200016840F6000441F4804101606B
:1023C0000168C4F2010401F480410191019901689E
:1023D00041F004010160006802A900F004000190CE
:1023E00001984FF4007002900220039003200590A2
:1023F0002046FEF71DFA4FF480600290252552E03A
:1024000041F21800C4F20200416841F480214160A9
:10241000416801F4802101910199016841F00801AE
:102420000160006802A900F00800019001984FF4D3
:1024300080600290022003900320059040F6000087
:10244000C4F2010000F580642046FEF7F1F94FF474
:1024500000602725029026E041F21800C4F2020035
:10246000416840F6000441F4003141604168C4F223
:10247000010401F4003101910199016841F0040166
:102480000160006802A900F0040001900198042096
:10249000029002200390032005902046FEF7C8F921
:1024A0000820029026250020CDE9030002A920463D
:1024B000FEF7BEF9284600210022FFF753F8284610
:1024C000FFF73EF806B0B0BD2DE9F04381B00446F9
:1024D00090F84200202809D1884600294FF00100D9
:1024E00018BF002A06D101B0BDE8F083022001B078
:1024F000BDE8F083002022211D46606484F842106C
:1025000020631646FEF79CFAA685E685A168074675
:10251000B1F5805F02D12069002851D046464FF0C6
:102520000008E08D00284FD005F101090CE000BF44
:10253000406800266FF35F2028F8020BE08D013819
:10254000E085E08D00283FD020680168890617D417
:10255000B9F1000F22D0002D00F0CA80FEF770FA0A
:10256000C01BA84200F2BC802068C168490744BF74
:1025700001685FEA01712FD401688906EED500BFBA
:10258000002ED5D0A168B1F5805F15D009B92169B9
:1025900091B1406800F07F000FE000BF016889063C
:1025A000EED4016889065CBF01685FEA8161E7D407
:1025B00001688906F2D5E3E7406806F8010BBDE73C
:1025C0000026E08D0028AFD10020202184F84210A1
:1025D00001B0BDE8F08300BF0021009101680091C7
:1025E00040680090009800BF206850E8030F216801
:1025F00020F4907041E80302BAB3206850E8030F5A
:10260000216820F4907041E8030272B3206850E81A
:10261000030F216820F4907041E803022AB3206878
:1026200050E8030F216820F4907041E80302002A6B
:10263000DAD11AE0206850E8050F216820F0010087
:1026400041E80502DAB1206850E8050F216820F062
:10265000010041E8050292B1206850E8050F2168A9
:1026600020F0010041E805024AB1206850E8050F5A
:10267000216820F0010041E80502002ADAD1206B30
:10268000012824D1206850E8030F216820F01000B1
:1026900041E80302DAB1206850E8030F216820F016
:1026A000100041E8030292B1206850E8030F21684E
:1026B00020F0100041E803024AB1206850E8030FFF
:1026C000216820F0100041E80302002ADAD120201E
:1026D00084F84200002008212063616484F84000EF
:1026E0000320202184F8421001B0BDE8F08300BF30
:1026F000FEF7A6F9F4E70000704700002DE9F0436B
:1027000081B0044690F84100202809D100294FF0FB
:10271000010018BF002A07D101B0BDE8F08300BF57
:10272000022001B0BDE8F0830020606421201D4636
:102730000E4684F841001746FEF782F9A784E78425
:10274000A1688146B1F5805F02D1206900285DD083
:1027500037460020E28C2168002A5DD06A1C24D014
:10276000002D4AD0804600BF0868000608D4FEF756
:1027700067F9A0EB0900A8427AD82168C868F3E796
:1027800017B117F8010B04E038F8020B00276FF3BC
:102790005F204860E08C0138E084E08C0028E3D1C1
:1027A0003AE000BF0A68120609D40A68120606D485
:1027B0000A6812065CBF0A685FEA0262F2D51FB1BE
:1027C00017F8012B05E000BF30F8022B00276FF34C
:1027D0005F224A60E28C013AE284E28C002AE4D172
:1027E0001AE000BF30F8022B00276FF35F224A6027
:1027F000E28C013AE284E28C72B10A68120635D5A5
:10280000002FEFD017F8012BF1E700BF002730466B
:10281000E28C2168002AA1D1086840061ED42DB39D
:10282000681C14D1086840062AD40868400627D4DA
:102830000868400624D4086840064FF00000F1D52F
:102840000DE000BF2068C1680068400618D4FEF79C
:10285000F7F8A0EB0900A842F4D909E000202021F4
:1028600084F8411001B0BDE8F08300BFFEF7E8F83E
:102870000320202184F8411001B0BDE8F08300BF9F
:102880000020202184F8411001B0BDE8F083000051
:1028900070470000FEE7000040F21410C2F2000092
:1028A000FEF7D8B840F21410C2F20000FEF77CB96F
:1028B00010B581B000210091406A40F21001C2F2CF
:1028C000000190F83DC009684BF28952C908C1F275
:1028D000F842A1FB0212110A2322514300910099F0
:1028E00011B30099013900910168096889051FD564
:1028F0000099C9B1009901390091016809688905F9
:1029000016D5009981B100990139009101680968D3
:1029100089050DD5009939B10099013900910168F7
:1029200009688905DBD403E0016C41F020010164F2
:10293000446B4FF0000E002C1CBF0021A162816B84
:1029400000291CBF00228A620268002C136823F44D
:1029500080631360A0F82AE018BFC4F834E00029AF
:102960001CBF00234B63116821F00101116090F836
:102970003D1060290CD1202180F83D10002180F805
:102980003E10016401B0BDE81040FEF75FB800BF23
:102990000CF02801282911D1116841F001011160C2
:1029A000116841F48061116000210163282180F8E1
:1029B0003D1001B0BDE81040FEF71ABC202180F8A0
:1029C0003D10002180F83E1001B0BDE81040FEF738
:1029D0000FBC000010B5044690F83D1090F83E0082
:1029E000B0F1100218BF0122403818BF0120024286
:1029F00008BF222934D001F0280028283AD100202D
:102A00002063282084F83D0020684168090542D5EC
:102A1000416821F400614160606B90F82110012948
:102A200058D1A06B42F6B101C0F600014163FDF739
:102A30008DFD002861D020684169490606D50069EE
:102A4000616A0870616A206801316162016821F081
:102A500001010160202084F83D00A06B4BE000BF25
:102A60002068026822F4006202604268120505D5FF
:102A70000CE000BF20684268120507D4602905D029
:102A8000202184F83D10002184F83E1000212163AC
:102A900041680905BCD494F83D10602950D120212B
:102AA00084F83D10002121644169490606D500697A
:102AB000616A0870616A206801316162016821F011
:102AC000010101602046FDF7C1FF206C000717D10E
:102AD0001BE000BF42F6B101C0F600014163FDF703
:102AE00035FD50B12168606B0A6822F001020A606E
:102AF000202184F83D10416B8847206C000704D0EA
:102B00002068416821F4E061416094F83D00216C47
:102B1000490758BF10BD282810D10020CFF6FF70FC
:102B2000E06200212020216384F83D00204684F8E3
:102B30003E10BDE81040FEF70FBC00BF10BD00BF47
:102B40004169490605D50069616A0870606A01300B
:102B500060622046FEF74CFB206C0007D0D1D4E722
:102B6000C16A428D042A07D10168426A4B6823F486
:102B700080634B60096911E0428D032A16D1026817
:102B80000229536823F48063536005D0042903D0DD
:102B9000116821F4806111601169426A1170416A03
:102BA00001314162418D013941857047428D022AD0
:102BB00012D14A1E0F2A19D8DFE802F008121812A3
:102BC0001818181818181818181818080268136810
:102BD00023F480630EE000BF0168426ACAE700BFC9
:102BE0000268136843F4806304E000BF026813685E
:102BF00043F4007313601269436A1A70426AD0F892
:102C000000C0531C4362438D013B4385DCF8103008
:102C10005370426A036801324262428D013A428532
:102C20005A6822F440725A60202280F83D2090F8C1
:102C30003E300022402B80F83E2003D10263FEF795
:102C400091BB00BFB1F1080218BF1222203918BF92
:102C500011460163FEF782BB81B090F83D10222936
:102C600010D1C16A428D042A0ED30168426A0969F3
:102C70001170416A01314162418D01394185418DB7
:102C800003295DD001B07047C36A012A58D8022BCE
:102C900056D00022009240F21002C2F200021268E6
:102CA0004BF28953D208C1F2F843A2FB03231A0A5C
:102CB00002EB82020092009A013A0092009A002AE6
:102CC00046D0026813689B051AD5009A013A009213
:102CD000009AEAB3026813689B0511D5009A013A7D
:102CE0000092009AA2B3026813689B0508D5009A67
:102CF000013A0092009A5AB3026813689B05DAD42D
:102D0000136823F480631360536823F4E063536013
:102D10001269436A1A70426A01324262428D013A74
:102D20004285202280F83D2090F83E300022402B42
:102D300080F83E2028D1026301B0FEF713BB00BF2C
:102D40000068416821F48061416001B0704700BFB4
:102D5000016C41F0200101640168426A4B6823F470
:102D6000E0634B6009691170416A01314162418D34
:102D700001394185202180F83D10002180F83E1066
:102D800001B0FEF735BA00BFB1F1080218BF122238
:102D9000203918BF1146016301B0FEF7DFBA000009
:102DA000C16A90F83D20212A18BF7047428D4AB170
:102DB000416A026811F8013B13614162418D01399A
:102DC0004185704711F5803F18BF082918D1016867
:102DD0004A6822F4E0624A600A6842F400720A60BB
:102DE00000212022016380F83D2090F83E2080F8E9
:102DF0003E10402A08BFFEF7B7BAFEF7B1BA00BFCF
:102E00002029E4D001684A6822F4E0624A60112176
:102E10000163002180F83E10202180F83D10FEF76C
:102E20009FBA000090F83D1090F83EC0C26A038D32
:102E3000002B08BF212919D0212905D0BCF1400F52
:102E400008BF222900D07047418D69B390F83E1029
:102E5000402908BF00F040B8416A026811F8013B00
:102E600013614162418D01394185704712F5803F00
:102E700018BF082A1ED101684A6822F4E0624A603D
:102E80000A6842F400720A6000212022016380F87F
:102E90003D2090F83E2080F83E10402A08BFFEF703
:102EA00063BAFEF75DBA00BF0068416821F4806133
:102EB00041607047202ADED001684A6822F4E0624F
:102EC0004A6011210163002180F83E10202180F822
:102ED0003D10FEF745BA000090F83D10026D5AB162
:102EE000026D012A14D10168826CD2B20A61016DAF
:102EF00001310165704700BFC26C816C012A15D198
:102F00000268C9B21161016D02310165704700BFED
:102F1000026D022A12D1222918D101680A6842F4EE
:102F200080720A60016D0131016570470268C1F36A
:102F300007211161016D0131016570470068416928
:102F4000090644BF00210161704700BF428D5AB19C
:102F5000212909D1416A026811F8013B13614162DC
:102F6000418D013941857047428D002A08BF2129D2
:102F7000EAD101684A6822F4E0624A600A6842F4D1
:102F800000720A6000212022016380F83D2080F851
:102F90003E10FEF7E9B90000B0B584B040F2180069
:102FA00042F20041C2F20000C4F2010100244FF4D9
:102FB0006022012504730475C261C0E900148460B5
:102FC0000561FDF79FF9002818BFFDF7D9F840F219
:102FD0001800C2F2000001A9CDE901450394FDF7F4
:102FE000D5F8002818BFFDF7CBF804B0B0BD00003D
:102FF00080B582B041F21400C4F2020001680022E0
:1030000041F0010101600068002100F00100019021
:1030100001980B20FEF7A6FA0B20FEF791FA10207C
:1030200000210022FEF79EFA1020FEF789FA1120F7
:1030300000210022FEF796FA112002B0BDE8804080
:10304000FEF77EBA83B041F21800C4F202000168B4
:1030500041F020010160016801F020010291029914
:10306000016841F004010160016801F0040101916F
:103070000199016841F008010160006800F0080052
:103080000090009803B0704780B540F2141045F2EC
:103090000041C2F20000C4F2000141F68022002388
:1030A000C0F206024FF0140C4FF4804E80E80E5030
:1030B000C0E90533C0E90733FEF79CF8002808BFD4
:1030C00080BDBDE88040FDF75BB8000080B540F2F0
:1030D000681043F60001C2F20000C4F201010023AF
:1030E0004FF00C0C4FF4165280E80E00C0E9033389
:1030F000C0E905C3C361FFF7CBF8002808BF80BD56
:10310000BDE88040FDF73CB880B540F2B01044F215
:103110000041C2F20000C4F2000100234FF00C0C89
:103120004FF4165280E80E00C0E90333C0E905C32E
:10313000C361FFF7ADF8002808BF80BDBDE880403F
:10314000FDF71EB880B540F2F81044F60001C2F257
:103150000000C4F2000100234FF00C0C4FF4165293
:1031600080E80E00C0E90333C0E905C3C361FFF77F
:103170008FF8002808BF80BDBDE88040FDF700B88B
:10318000FEE70000FEE70000704700007047000007
:10319000FEF76EB970470000406A0021C185C18406
:1031A000FEF7BCBD81B090F84210222921D183687E
:1031B0000246B3F5805F09D152F8281F52F8183C37
:1031C000002B63D003685B680AE000BF52F8281F39
:1031D00013B90369002BF5D003685B6803F07F0324
:1031E0000B70116801311160C18D01390A04C1856C
:1031F00002D001B0704700BF0168CA6822F0200207
:10320000CA60CA6822F48072CA604A6922F0010268
:103210004A61202180F8421000214163026B012A9B
:103220003CD10163016851E8031F026821F01001DD
:1032300042E80313DBB1016851E8031F026821F083
:10324000100142E8031393B1016851E8031F0268BB
:1032500021F0100142E803134BB1016851E8031F4C
:10326000026821F0100142E80313002BDAD1016853
:103270000A68D20606D5002200920A6800924968C0
:1032800000910099818D01B0FEF746BD0268526839
:103290006FF35F2221F8022B8162A5E701B0FFF7EF
:1032A0002BBA000040F26810C2F20000FEF738BDF1
:1032B00040F2B010C2F20000FEF732BD40F2F8104A
:1032C000C2F20000FEF72CBDFEE7000080B582B020
:1032D00000208DF8070040F26810C2F200000DF1E6
:1032E000070101224FF6FF73FFF7EEF89DF8070084
:1032F00002B080BD80B582B0019040F26810C2F289
:10330000000001A901224FF6FF73FFF7F7F90198BA
:1033100002B080BD94B0FEF7B9F800240120CDE9D9
:103320000F44CDE90D440A900E904FF4E0104FF495
:103330008031022513900AA80494CDE90244CDE916
:103340000B14CDE91151FEF7D1FA28B1EFF310803B
:1033500072B600BFFEE700BF0F20CDE905054FF4B0
:103360008060CDE9080405A802210794FEF7B8F9AA
:1033700020B1EFF3108072B6FEE700BF022001908B
:103380004FF40040039001A8FEF728F920B1EFF3B5
:10339000108072B6FEE700BFFFF754FEFFF728FE6D
:1033A000FFF7FAFDFFF770FEFFF790FEFFF7ACFEA8
:1033B000FFF7C8FE13A000F0F9F819A000F0F6F826
:1033C00040F2000843F2FA5943F217641EA0C2F219
:1033D0000008C0F6000927A7C0F6000429A500BF11
:1033E00000F0E4F8404600F0DFF8C6B24846314647
:1033F00000F050F82046322E08BF3846312E08BF64
:103400002846EDE70D0AE4B8B2E58FA3E68EA7E5FE
:1034100088B6E6B58BE8AF95E5AE9EE9AA8C0000CC
:10342000E68C89E994AE31EFBC9AE58F91E9808111
:10343000E5AD97E7ACA6E4B8B22248656C6C6F20A6
:10344000576F726C64212200E68C89E994AE32EFEA
:10345000BC9AE58F91E98081E5AD97E7ACA6E4B829
:10346000B22253544D33324631303343385436222E
:103470000000000053544D3332463130334338544A
:10348000360D000048656C6C6F20576F726C6421BC
:103490000D0000000FB4054B10B503A9044A0298B3
:1034A00000F017F810BC5DF814FB0000F5320008BE
:1034B0000400002002E008C8121F08C1002AFAD147
:1034C00070477047002001E001C1121F002AFBD1A4
:1034D00070472DE9F84F99469246884605460027E1
:1034E00006E025280AD051464A4690476D1C7F1CAD
:1034F00028780028F5D13846BDE8F88F002315F864
:10350000011F18462E2915D115F8011F04232A2959
:103510000DD06FF02F022978A1F13004092C09D8C1
:1035200000EB800002EB400008446D1CF3E758F804
:10353000040B6D1C2A78002ADDD0632A07D0732A79
:103540000FD0104651464A4690477F1C2AE018F893
:10355000042B8DF8002000218DF801106E4601210A
:1035600003E058F8046B4FF0FF315A074FF00004A6
:1035700001D409E0641C84420BDA8C42FADB325D30
:10358000002AF7D105E0641C8C42FCDB305D00288A
:10359000F9D1274404E016F8010B51464A469047FA
:1035A000641EF8D26D1CA3E7FFF790BE10B5044669
:1035B00001E0FFF79FFE14F8010B04490028F8D141
:1035C000BDE810400A20FFF795BE0000040000206F
:1035D00000000000000000000102030406070809C3
:1035E00000000000010203040102020304050607B3
:1035F00008090A0B0C0D0E0F1010E4BDA0E8BE93D5
:10360000E585A5E79A84E5AD97E7ACA6E698AFEF28
:10361000BC9A25630D0A00E697A0E69588E8BE935C
:10362000E585A5EFBC810D004836000800000020AC
:1036300018000000B43400086036000818000020AC
:1036400030060000C4340008000000000000000044
:10365000010000001000000000127A0000000000CD
:04000005080000ED02
:00000001FF
